{
  "contractName": "Logger",
  "abi": [
    {
      "constant": true,
      "inputs": [
        {
          "name": "",
          "type": "address"
        }
      ],
      "name": "loggers",
      "outputs": [
        {
          "name": "",
          "type": "bool"
        }
      ],
      "payable": false,
      "stateMutability": "view",
      "type": "function"
    },
    {
      "constant": true,
      "inputs": [],
      "name": "owner",
      "outputs": [
        {
          "name": "",
          "type": "address"
        }
      ],
      "payable": false,
      "stateMutability": "view",
      "type": "function"
    },
    {
      "constant": false,
      "inputs": [
        {
          "name": "newOwner",
          "type": "address"
        }
      ],
      "name": "transferOwnership",
      "outputs": [],
      "payable": false,
      "stateMutability": "nonpayable",
      "type": "function"
    },
    {
      "anonymous": false,
      "inputs": [
        {
          "indexed": false,
          "name": "newLogger",
          "type": "address"
        }
      ],
      "name": "AuthorizedAddress",
      "type": "event"
    },
    {
      "anonymous": false,
      "inputs": [
        {
          "indexed": true,
          "name": "relay",
          "type": "address"
        },
        {
          "indexed": false,
          "name": "relayOwner",
          "type": "address"
        },
        {
          "indexed": false,
          "name": "recipient",
          "type": "address"
        }
      ],
      "name": "UserRelayCreated",
      "type": "event"
    },
    {
      "anonymous": false,
      "inputs": [
        {
          "indexed": true,
          "name": "relay",
          "type": "address"
        },
        {
          "indexed": false,
          "name": "tier",
          "type": "uint256"
        },
        {
          "indexed": false,
          "name": "timeStarted",
          "type": "uint256"
        }
      ],
      "name": "MembershipActivated",
      "type": "event"
    },
    {
      "anonymous": false,
      "inputs": [
        {
          "indexed": true,
          "name": "relay",
          "type": "address"
        },
        {
          "indexed": false,
          "name": "expirationDate",
          "type": "uint256"
        }
      ],
      "name": "MembershipCancelled",
      "type": "event"
    },
    {
      "anonymous": false,
      "inputs": [
        {
          "indexed": true,
          "name": "relay",
          "type": "address"
        },
        {
          "indexed": false,
          "name": "timeRetrieved",
          "type": "uint256"
        }
      ],
      "name": "MembershipTokensRetrieved",
      "type": "event"
    },
    {
      "anonymous": false,
      "inputs": [
        {
          "indexed": true,
          "name": "relay",
          "type": "address"
        },
        {
          "indexed": false,
          "name": "amount",
          "type": "uint256"
        }
      ],
      "name": "ExcessTokensRetrieved",
      "type": "event"
    },
    {
      "anonymous": false,
      "inputs": [
        {
          "indexed": true,
          "name": "previousOwner",
          "type": "address"
        },
        {
          "indexed": true,
          "name": "newOwner",
          "type": "address"
        }
      ],
      "name": "OwnershipTransferred",
      "type": "event"
    },
    {
      "constant": false,
      "inputs": [
        {
          "name": "_logger",
          "type": "address"
        }
      ],
      "name": "authorize",
      "outputs": [],
      "payable": false,
      "stateMutability": "nonpayable",
      "type": "function"
    },
    {
      "constant": false,
      "inputs": [
        {
          "name": "_relay",
          "type": "address"
        },
        {
          "name": "_owner",
          "type": "address"
        },
        {
          "name": "_recipient",
          "type": "address"
        }
      ],
      "name": "logUserRelayCreated",
      "outputs": [],
      "payable": false,
      "stateMutability": "nonpayable",
      "type": "function"
    },
    {
      "constant": false,
      "inputs": [
        {
          "name": "relay",
          "type": "address"
        },
        {
          "name": "tier",
          "type": "uint256"
        },
        {
          "name": "timeStarted",
          "type": "uint256"
        }
      ],
      "name": "logMembershipActivated",
      "outputs": [],
      "payable": false,
      "stateMutability": "nonpayable",
      "type": "function"
    },
    {
      "constant": false,
      "inputs": [
        {
          "name": "relay",
          "type": "address"
        },
        {
          "name": "expirationDate",
          "type": "uint256"
        }
      ],
      "name": "logMembershipCancelled",
      "outputs": [],
      "payable": false,
      "stateMutability": "nonpayable",
      "type": "function"
    },
    {
      "constant": false,
      "inputs": [
        {
          "name": "relay",
          "type": "address"
        },
        {
          "name": "timeRetrieved",
          "type": "uint256"
        }
      ],
      "name": "logMembershipTokensRetrieved",
      "outputs": [],
      "payable": false,
      "stateMutability": "nonpayable",
      "type": "function"
    },
    {
      "constant": false,
      "inputs": [
        {
          "name": "relay",
          "type": "address"
        },
        {
          "name": "amount",
          "type": "uint256"
        }
      ],
      "name": "logExcessTokensRetrieved",
      "outputs": [],
      "payable": false,
      "stateMutability": "nonpayable",
      "type": "function"
    }
  ],
  "bytecode": "0x6060604052336000806101000a81548173ffffffffffffffffffffffffffffffffffffffff021916908373ffffffffffffffffffffffffffffffffffffffff160217905550610a2c806100536000396000f300606060405260043610610099576000357c0100000000000000000000000000000000000000000000000000000000900463ffffffff168063143a2e311461009e5780631fa8ee9d146100e05780637a911479146101315780638da5cb5b14610173578063901945c3146101c8578063b6a5d7de14610213578063de297a881461024c578063f2fde38b1461028e578063fcfde0e0146102c7575b600080fd5b34156100a957600080fd5b6100de600480803573ffffffffffffffffffffffffffffffffffffffff1690602001909190803590602001909190505061033e565b005b34156100eb57600080fd5b610117600480803573ffffffffffffffffffffffffffffffffffffffff169060200190919050506103e8565b604051808215151515815260200191505060405180910390f35b341561013c57600080fd5b610171600480803573ffffffffffffffffffffffffffffffffffffffff16906020019091908035906020019091905050610408565b005b341561017e57600080fd5b6101866104b2565b604051808273ffffffffffffffffffffffffffffffffffffffff1673ffffffffffffffffffffffffffffffffffffffff16815260200191505060405180910390f35b34156101d357600080fd5b610211600480803573ffffffffffffffffffffffffffffffffffffffff169060200190919080359060200190919080359060200190919050506104d7565b005b341561021e57600080fd5b61024a600480803573ffffffffffffffffffffffffffffffffffffffff1690602001909190505061058a565b005b341561025757600080fd5b61028c600480803573ffffffffffffffffffffffffffffffffffffffff169060200190919080359060200190919050506106f6565b005b341561029957600080fd5b6102c5600480803573ffffffffffffffffffffffffffffffffffffffff169060200190919050506107a0565b005b34156102d257600080fd5b61033c600480803573ffffffffffffffffffffffffffffffffffffffff1690602001909190803573ffffffffffffffffffffffffffffffffffffffff1690602001909190803573ffffffffffffffffffffffffffffffffffffffff169060200190919050506108f5565b005b600160003373ffffffffffffffffffffffffffffffffffffffff1673ffffffffffffffffffffffffffffffffffffffff16815260200190815260200160002060009054906101000a900460ff16151561039657600080fd5b8173ffffffffffffffffffffffffffffffffffffffff167fd59b683d5428902bcbf4c86174a7aa4a30becbb45d2d5745797c097edcdfff29826040518082815260200191505060405180910390a25050565b60016020528060005260406000206000915054906101000a900460ff1681565b600160003373ffffffffffffffffffffffffffffffffffffffff1673ffffffffffffffffffffffffffffffffffffffff16815260200190815260200160002060009054906101000a900460ff16151561046057600080fd5b8173ffffffffffffffffffffffffffffffffffffffff167f5c08b88be93b6cfe29a7a3dc3ecb9a288bc0ebb239908f5703090bdf8bd3a9ab826040518082815260200191505060405180910390a25050565b6000809054906101000a900473ffffffffffffffffffffffffffffffffffffffff1681565b600160003373ffffffffffffffffffffffffffffffffffffffff1673ffffffffffffffffffffffffffffffffffffffff16815260200190815260200160002060009054906101000a900460ff16151561052f57600080fd5b8273ffffffffffffffffffffffffffffffffffffffff167fe2d5134743133d3a9c220c5409db38e03e1617491563fdf5be668215b3599af48383604051808381526020018281526020019250505060405180910390a2505050565b6000809054906101000a900473ffffffffffffffffffffffffffffffffffffffff1673ffffffffffffffffffffffffffffffffffffffff163373ffffffffffffffffffffffffffffffffffffffff161415156105e557600080fd5b600160008273ffffffffffffffffffffffffffffffffffffffff1673ffffffffffffffffffffffffffffffffffffffff16815260200190815260200160002060009054906101000a900460ff1615156106f35760018060008373ffffffffffffffffffffffffffffffffffffffff1673ffffffffffffffffffffffffffffffffffffffff16815260200190815260200160002060006101000a81548160ff0219169083151502179055507f312e560dfc3c6134f04d3b43aff14db6247160321f41aca0d50e220d02b9ef0381604051808273ffffffffffffffffffffffffffffffffffffffff1673ffffffffffffffffffffffffffffffffffffffff16815260200191505060405180910390a15b50565b600160003373ffffffffffffffffffffffffffffffffffffffff1673ffffffffffffffffffffffffffffffffffffffff16815260200190815260200160002060009054906101000a900460ff16151561074e57600080fd5b8173ffffffffffffffffffffffffffffffffffffffff167f78bc6ae45dc31fa84c530ece439c34ebb243aabfcd90de2aa22cf9ea6c27622a826040518082815260200191505060405180910390a25050565b6000809054906101000a900473ffffffffffffffffffffffffffffffffffffffff1673ffffffffffffffffffffffffffffffffffffffff163373ffffffffffffffffffffffffffffffffffffffff161415156107fb57600080fd5b600073ffffffffffffffffffffffffffffffffffffffff168173ffffffffffffffffffffffffffffffffffffffff161415151561083757600080fd5b8073ffffffffffffffffffffffffffffffffffffffff166000809054906101000a900473ffffffffffffffffffffffffffffffffffffffff1673ffffffffffffffffffffffffffffffffffffffff167f8be0079c531659141344cd1fd0a4f28419497f9722a3daafe3b4186f6b6457e060405160405180910390a3806000806101000a81548173ffffffffffffffffffffffffffffffffffffffff021916908373ffffffffffffffffffffffffffffffffffffffff16021790555050565b600160003373ffffffffffffffffffffffffffffffffffffffff1673ffffffffffffffffffffffffffffffffffffffff16815260200190815260200160002060009054906101000a900460ff16151561094d57600080fd5b8273ffffffffffffffffffffffffffffffffffffffff167fcc30dd0dfefbca5efa045e024bb1b869f7e1b8a88d615e89e06d226924c917cd8383604051808373ffffffffffffffffffffffffffffffffffffffff1673ffffffffffffffffffffffffffffffffffffffff1681526020018273ffffffffffffffffffffffffffffffffffffffff1673ffffffffffffffffffffffffffffffffffffffff1681526020019250505060405180910390a25050505600a165627a7a72305820bb574870485220b8030ab5767b556a5155e8baf0d1d374191c46469d88890fea0029",
  "source": "pragma solidity ^0.4.18;\n\nimport './Ownable.sol';\n\n/* A contract that provides central logging capabilities for ease of upgrading. */\ncontract Logger is Ownable {\n\n    // Addresses which are authorized to log messages\n    mapping (address => bool) public loggers;\n\n    // Modifiers\n    modifier onlyLogger { if (!loggers[msg.sender]) revert(); _; }\n\n    // Admin event\n    event AuthorizedAddress(address newLogger);\n\n    // Events\n    event UserRelayCreated(address indexed relay, address relayOwner, address recipient);\n    event MembershipActivated(address indexed relay, uint tier, uint timeStarted);\n    event MembershipCancelled(address indexed relay, uint expirationDate);\n    event MembershipTokensRetrieved(address indexed relay, uint timeRetrieved);\n    event ExcessTokensRetrieved(address indexed relay, uint amount);\n\n    function authorize(address _logger) public onlyOwner {\n        if (!loggers[_logger]) {\n            loggers[_logger] = true;\n            AuthorizedAddress(_logger);\n        }\n    }\n\n    function logUserRelayCreated(address _relay, address _owner, address _recipient) public onlyLogger {\n        UserRelayCreated(_relay, _owner, _recipient);\n    }\n\n    function logMembershipActivated(address relay, uint tier, uint timeStarted) public onlyLogger {\n        MembershipActivated(relay, tier, timeStarted);\n    }\n\n    function logMembershipCancelled(address relay, uint expirationDate) public onlyLogger {\n        MembershipCancelled(relay, expirationDate);\n    }\n\n    function logMembershipTokensRetrieved(address relay, uint timeRetrieved) public onlyLogger {\n        MembershipTokensRetrieved(relay, timeRetrieved);\n    }\n\n    function logExcessTokensRetrieved(address relay, uint amount) public onlyLogger {\n        ExcessTokensRetrieved(relay, amount);\n    }\n}\n",
  "sourcePath": "/media/m/MembershipController/contracts/Logger.sol",
  "compiler": {
    "name": "solc",
    "version": "0.4.19+commit.c4cbbb05.Emscripten.clang"
  },
  "schemaVersion": "2.0.0",
  "updatedAt": "2018-04-18T02:25:26.455Z"
}