{
  "contractName": "MembershipController",
  "abi": [
    {
      "constant": true,
      "inputs": [
        {
          "name": "",
          "type": "uint256"
        }
      ],
      "name": "tiers",
      "outputs": [
        {
          "name": "",
          "type": "uint256"
        }
      ],
      "payable": false,
      "stateMutability": "view",
      "type": "function"
    },
    {
      "constant": true,
      "inputs": [],
      "name": "deprecator",
      "outputs": [
        {
          "name": "",
          "type": "address"
        }
      ],
      "payable": false,
      "stateMutability": "view",
      "type": "function"
    },
    {
      "constant": true,
      "inputs": [],
      "name": "deprecated",
      "outputs": [
        {
          "name": "",
          "type": "bool"
        }
      ],
      "payable": false,
      "stateMutability": "view",
      "type": "function"
    },
    {
      "constant": true,
      "inputs": [],
      "name": "retrieveRelay",
      "outputs": [
        {
          "name": "",
          "type": "address"
        }
      ],
      "payable": false,
      "stateMutability": "view",
      "type": "function"
    },
    {
      "constant": true,
      "inputs": [],
      "name": "worker",
      "outputs": [
        {
          "name": "",
          "type": "address"
        }
      ],
      "payable": false,
      "stateMutability": "view",
      "type": "function"
    },
    {
      "constant": true,
      "inputs": [],
      "name": "totalLocked",
      "outputs": [
        {
          "name": "",
          "type": "uint256"
        }
      ],
      "payable": false,
      "stateMutability": "view",
      "type": "function"
    },
    {
      "constant": true,
      "inputs": [],
      "name": "membershipPeriodDuration",
      "outputs": [
        {
          "name": "",
          "type": "uint256"
        }
      ],
      "payable": false,
      "stateMutability": "view",
      "type": "function"
    },
    {
      "constant": true,
      "inputs": [],
      "name": "overrideRelay",
      "outputs": [
        {
          "name": "",
          "type": "address"
        }
      ],
      "payable": false,
      "stateMutability": "view",
      "type": "function"
    },
    {
      "constant": true,
      "inputs": [
        {
          "name": "",
          "type": "address"
        }
      ],
      "name": "memberships",
      "outputs": [
        {
          "name": "tier",
          "type": "uint256"
        },
        {
          "name": "timeStarted",
          "type": "uint256"
        },
        {
          "name": "timeCancelled",
          "type": "uint256"
        },
        {
          "name": "timeUntilExpiration",
          "type": "uint256"
        },
        {
          "name": "cancelled",
          "type": "bool"
        },
        {
          "name": "overrideApproved",
          "type": "bool"
        }
      ],
      "payable": false,
      "stateMutability": "view",
      "type": "function"
    },
    {
      "constant": true,
      "inputs": [],
      "name": "activateRelay",
      "outputs": [
        {
          "name": "",
          "type": "address"
        }
      ],
      "payable": false,
      "stateMutability": "view",
      "type": "function"
    },
    {
      "constant": true,
      "inputs": [],
      "name": "owner",
      "outputs": [
        {
          "name": "",
          "type": "address"
        }
      ],
      "payable": false,
      "stateMutability": "view",
      "type": "function"
    },
    {
      "constant": true,
      "inputs": [],
      "name": "logger",
      "outputs": [
        {
          "name": "",
          "type": "address"
        }
      ],
      "payable": false,
      "stateMutability": "view",
      "type": "function"
    },
    {
      "constant": false,
      "inputs": [
        {
          "name": "newOwner",
          "type": "address"
        }
      ],
      "name": "transferOwnership",
      "outputs": [],
      "payable": false,
      "stateMutability": "nonpayable",
      "type": "function"
    },
    {
      "constant": true,
      "inputs": [],
      "name": "token",
      "outputs": [
        {
          "name": "",
          "type": "address"
        }
      ],
      "payable": false,
      "stateMutability": "view",
      "type": "function"
    },
    {
      "inputs": [
        {
          "name": "_worker",
          "type": "address"
        },
        {
          "name": "_token",
          "type": "address"
        },
        {
          "name": "_logger",
          "type": "address"
        },
        {
          "name": "_deprecator",
          "type": "address"
        },
        {
          "name": "_tiers",
          "type": "uint256[]"
        },
        {
          "name": "_membershipPeriodDuration",
          "type": "uint256"
        }
      ],
      "payable": false,
      "stateMutability": "nonpayable",
      "type": "constructor"
    },
    {
      "payable": false,
      "stateMutability": "nonpayable",
      "type": "fallback"
    },
    {
      "anonymous": false,
      "inputs": [
        {
          "indexed": true,
          "name": "previousOwner",
          "type": "address"
        },
        {
          "indexed": true,
          "name": "newOwner",
          "type": "address"
        }
      ],
      "name": "OwnershipTransferred",
      "type": "event"
    },
    {
      "constant": true,
      "inputs": [
        {
          "name": "_user",
          "type": "address"
        }
      ],
      "name": "getUserRelay",
      "outputs": [
        {
          "name": "",
          "type": "address"
        }
      ],
      "payable": false,
      "stateMutability": "view",
      "type": "function"
    },
    {
      "constant": false,
      "inputs": [],
      "name": "deprecate",
      "outputs": [],
      "payable": false,
      "stateMutability": "nonpayable",
      "type": "function"
    },
    {
      "constant": false,
      "inputs": [
        {
          "name": "_user",
          "type": "address"
        },
        {
          "name": "_recipient",
          "type": "address"
        }
      ],
      "name": "createRelayForUser",
      "outputs": [],
      "payable": false,
      "stateMutability": "nonpayable",
      "type": "function"
    },
    {
      "constant": false,
      "inputs": [
        {
          "name": "_user",
          "type": "address"
        },
        {
          "name": "_tier",
          "type": "uint256"
        }
      ],
      "name": "activateAtTier",
      "outputs": [],
      "payable": false,
      "stateMutability": "nonpayable",
      "type": "function"
    },
    {
      "constant": false,
      "inputs": [
        {
          "name": "_user",
          "type": "address"
        }
      ],
      "name": "activate",
      "outputs": [],
      "payable": false,
      "stateMutability": "nonpayable",
      "type": "function"
    },
    {
      "constant": false,
      "inputs": [
        {
          "name": "_user",
          "type": "address"
        }
      ],
      "name": "retrieve",
      "outputs": [],
      "payable": false,
      "stateMutability": "nonpayable",
      "type": "function"
    },
    {
      "constant": false,
      "inputs": [
        {
          "name": "_user",
          "type": "address"
        }
      ],
      "name": "override",
      "outputs": [],
      "payable": false,
      "stateMutability": "nonpayable",
      "type": "function"
    },
    {
      "constant": false,
      "inputs": [],
      "name": "cancelAndRetrieve",
      "outputs": [],
      "payable": false,
      "stateMutability": "nonpayable",
      "type": "function"
    },
    {
      "constant": false,
      "inputs": [
        {
          "name": "_worker",
          "type": "address"
        }
      ],
      "name": "transferWorker",
      "outputs": [],
      "payable": false,
      "stateMutability": "nonpayable",
      "type": "function"
    }
  ],
  "bytecode": "0x606060405234156200001057600080fd5b604051620041c4380380620041c483398101604052808051906020019091908051906020019091908051906020019091908051906020019091908051820191906020018051906020019091905050600080336000806101000a81548173ffffffffffffffffffffffffffffffffffffffff021916908373ffffffffffffffffffffffffffffffffffffffff1602179055505b60018451038210156200011b576001820190505b83518110156200010d578381815181101515620000cf57fe5b906020019060200201518483815181101515620000e857fe5b90602001906020020151101515620000ff57600080fd5b8080600101915050620000b6565b8180600101925050620000a2565b87600260006101000a81548173ffffffffffffffffffffffffffffffffffffffff021916908373ffffffffffffffffffffffffffffffffffffffff16021790555086600360006101000a81548173ffffffffffffffffffffffffffffffffffffffff021916908373ffffffffffffffffffffffffffffffffffffffff16021790555085600760006101000a81548173ffffffffffffffffffffffffffffffffffffffff021916908373ffffffffffffffffffffffffffffffffffffffff16021790555084600860006101000a81548173ffffffffffffffffffffffffffffffffffffffff021916908373ffffffffffffffffffffffffffffffffffffffff16021790555083600990805190602001906200023792919062000a17565b5082600a819055506200025d6200026b6401000000000262002f57176401000000009004565b505050505050505062000a91565b600173__Relay_________________________________635d8b59d390913073ffffffffffffffffffffffffffffffffffffffff16631c5a9d9c90507c0100000000000000000000000000000000000000000000000000000000026040518363ffffffff167c010000000000000000000000000000000000000000000000000000000002815260040180838152602001827bffffffffffffffffffffffffffffffffffffffffffffffffffffffff19167bffffffffffffffffffffffffffffffffffffffffffffffffffffffff191681526020019250505060006040518083038186803b15156200035b57600080fd5b6102c65a03f415156200036d57600080fd5b505050600173__Relay_________________________________635d8b59d390913073ffffffffffffffffffffffffffffffffffffffff16630a79309b90507c0100000000000000000000000000000000000000000000000000000000026040518363ffffffff167c010000000000000000000000000000000000000000000000000000000002815260040180838152602001827bffffffffffffffffffffffffffffffffffffffffffffffffffffffff19167bffffffffffffffffffffffffffffffffffffffffffffffffffffffff191681526020019250505060006040518083038186803b15156200046057600080fd5b6102c65a03f415156200047257600080fd5b505050600173__Relay_________________________________635d8b59d390913073ffffffffffffffffffffffffffffffffffffffff166372e670b090507c0100000000000000000000000000000000000000000000000000000000026040518363ffffffff167c010000000000000000000000000000000000000000000000000000000002815260040180838152602001827bffffffffffffffffffffffffffffffffffffffffffffffffffffffff19167bffffffffffffffffffffffffffffffffffffffffffffffffffffffff191681526020019250505060006040518083038186803b15156200056557600080fd5b6102c65a03f415156200057757600080fd5b505050600173__Relay_________________________________6302e1fc4690913073ffffffffffffffffffffffffffffffffffffffff16631c5a9d9c90507c010000000000000000000000000000000000000000000000000000000002306000604051602001526040518463ffffffff167c010000000000000000000000000000000000000000000000000000000002815260040180848152602001837bffffffffffffffffffffffffffffffffffffffffffffffffffffffff19167bffffffffffffffffffffffffffffffffffffffffffffffffffffffff191681526020018273ffffffffffffffffffffffffffffffffffffffff1673ffffffffffffffffffffffffffffffffffffffff168152602001935050505060206040518083038186803b1515620006a757600080fd5b6102c65a03f41515620006b957600080fd5b50505060405180519050600460006101000a81548173ffffffffffffffffffffffffffffffffffffffff021916908373ffffffffffffffffffffffffffffffffffffffff160217905550600173__Relay_________________________________6302e1fc4690913073ffffffffffffffffffffffffffffffffffffffff16630a79309b90507c010000000000000000000000000000000000000000000000000000000002306000604051602001526040518463ffffffff167c010000000000000000000000000000000000000000000000000000000002815260040180848152602001837bffffffffffffffffffffffffffffffffffffffffffffffffffffffff19167bffffffffffffffffffffffffffffffffffffffffffffffffffffffff191681526020018273ffffffffffffffffffffffffffffffffffffffff1673ffffffffffffffffffffffffffffffffffffffff168152602001935050505060206040518083038186803b15156200083057600080fd5b6102c65a03f415156200084257600080fd5b50505060405180519050600560006101000a81548173ffffffffffffffffffffffffffffffffffffffff021916908373ffffffffffffffffffffffffffffffffffffffff160217905550600173__Relay_________________________________6302e1fc4690913073ffffffffffffffffffffffffffffffffffffffff166372e670b090507c010000000000000000000000000000000000000000000000000000000002306000604051602001526040518463ffffffff167c010000000000000000000000000000000000000000000000000000000002815260040180848152602001837bffffffffffffffffffffffffffffffffffffffffffffffffffffffff19167bffffffffffffffffffffffffffffffffffffffffffffffffffffffff191681526020018273ffffffffffffffffffffffffffffffffffffffff1673ffffffffffffffffffffffffffffffffffffffff168152602001935050505060206040518083038186803b1515620009b957600080fd5b6102c65a03f41515620009cb57600080fd5b50505060405180519050600660006101000a81548173ffffffffffffffffffffffffffffffffffffffff021916908373ffffffffffffffffffffffffffffffffffffffff160217905550565b82805482825590600052602060002090810192821562000a56579160200282015b8281111562000a5557825182559160200191906001019062000a38565b5b50905062000a65919062000a69565b5090565b62000a8e91905b8082111562000a8a57600081600090555060010162000a70565b5090565b90565b6137238062000aa16000396000f300606060405260043610610133576000357c0100000000000000000000000000000000000000000000000000000000900463ffffffff168063039af9eb1461070457806306a0e0351461073b5780630a79309b146107905780630e136b19146107c95780630fcc0c28146107f65780631c5a9d9c1461080b578063258f04dc146108445780634d547ada1461089957806356891412146108ee57806362351cd01461091757806362ed33c8146109595780636ef640541461098257806372e670b0146109d757806373d9879914610a105780637ab4973614610a885780638da5cb5b14610add5780639b1d0b4114610b32578063b3d0a72f14610bab578063c9930b2614610bc0578063f24ccbfe14610bf9578063f2fde38b14610c4e578063fc0c546a14610c87578063ff5320ac14610cdc575b341561013e57600080fd5b6000600173__Relay_________________________________6302e1fc4690913073ffffffffffffffffffffffffffffffffffffffff1663b3d0a72f90507c010000000000000000000000000000000000000000000000000000000002336000604051602001526040518463ffffffff167c010000000000000000000000000000000000000000000000000000000002815260040180848152602001837bffffffffffffffffffffffffffffffffffffffffffffffffffffffff19167bffffffffffffffffffffffffffffffffffffffffffffffffffffffff191681526020018273ffffffffffffffffffffffffffffffffffffffff1673ffffffffffffffffffffffffffffffffffffffff168152602001935050505060206040518083038186803b151561026c57600080fd5b6102c65a03f4151561027d57600080fd5b5050506040518051905073ffffffffffffffffffffffffffffffffffffffff161415156102a957600080fd5b600c60009054906101000a900460ff16156102c357600080fd5b600173__Relay_________________________________639711af7a90913073ffffffffffffffffffffffffffffffffffffffff1663b3d0a72f90507c0100000000000000000000000000000000000000000000000000000000023333600360009054906101000a900473ffffffffffffffffffffffffffffffffffffffff166040518663ffffffff167c010000000000000000000000000000000000000000000000000000000002815260040180868152602001857bffffffffffffffffffffffffffffffffffffffffffffffffffffffff19167bffffffffffffffffffffffffffffffffffffffffffffffffffffffff191681526020018473ffffffffffffffffffffffffffffffffffffffff1673ffffffffffffffffffffffffffffffffffffffff1681526020018373ffffffffffffffffffffffffffffffffffffffff1673ffffffffffffffffffffffffffffffffffffffff1681526020018273ffffffffffffffffffffffffffffffffffffffff1673ffffffffffffffffffffffffffffffffffffffff1681526020019550505050505060006040518083038186803b151561047057600080fd5b6102c65a03f4151561048157600080fd5b505050600760009054906101000a900473ffffffffffffffffffffffffffffffffffffffff1673ffffffffffffffffffffffffffffffffffffffff1663fcfde0e0600173__Relay_________________________________6302e1fc4690913073ffffffffffffffffffffffffffffffffffffffff1663b3d0a72f90507c010000000000000000000000000000000000000000000000000000000002336000604051602001526040518463ffffffff167c010000000000000000000000000000000000000000000000000000000002815260040180848152602001837bffffffffffffffffffffffffffffffffffffffffffffffffffffffff19167bffffffffffffffffffffffffffffffffffffffffffffffffffffffff191681526020018273ffffffffffffffffffffffffffffffffffffffff1673ffffffffffffffffffffffffffffffffffffffff168152602001935050505060206040518083038186803b15156105ee57600080fd5b6102c65a03f415156105ff57600080fd5b5050506040518051905033336040518463ffffffff167c0100000000000000000000000000000000000000000000000000000000028152600401808473ffffffffffffffffffffffffffffffffffffffff1673ffffffffffffffffffffffffffffffffffffffff1681526020018373ffffffffffffffffffffffffffffffffffffffff1673ffffffffffffffffffffffffffffffffffffffff1681526020018273ffffffffffffffffffffffffffffffffffffffff1673ffffffffffffffffffffffffffffffffffffffff1681526020019350505050600060405180830381600087803b15156106ee57600080fd5b6102c65a03f115156106ff57600080fd5b505050005b341561070f57600080fd5b6107256004808035906020019091905050610d34565b6040518082815260200191505060405180910390f35b341561074657600080fd5b61074e610d58565b604051808273ffffffffffffffffffffffffffffffffffffffff1673ffffffffffffffffffffffffffffffffffffffff16815260200191505060405180910390f35b341561079b57600080fd5b6107c7600480803573ffffffffffffffffffffffffffffffffffffffff16906020019091905050610d7e565b005b34156107d457600080fd5b6107dc611271565b604051808215151515815260200191505060405180910390f35b341561080157600080fd5b610809611284565b005b341561081657600080fd5b610842600480803573ffffffffffffffffffffffffffffffffffffffff16906020019091905050611317565b005b341561084f57600080fd5b610857611619565b604051808273ffffffffffffffffffffffffffffffffffffffff1673ffffffffffffffffffffffffffffffffffffffff16815260200191505060405180910390f35b34156108a457600080fd5b6108ac61163f565b604051808273ffffffffffffffffffffffffffffffffffffffff1673ffffffffffffffffffffffffffffffffffffffff16815260200191505060405180910390f35b34156108f957600080fd5b610901611665565b6040518082815260200191505060405180910390f35b341561092257600080fd5b610957600480803573ffffffffffffffffffffffffffffffffffffffff1690602001909190803590602001909190505061166b565b005b341561096457600080fd5b61096c611961565b6040518082815260200191505060405180910390f35b341561098d57600080fd5b610995611967565b604051808273ffffffffffffffffffffffffffffffffffffffff1673ffffffffffffffffffffffffffffffffffffffff16815260200191505060405180910390f35b34156109e257600080fd5b610a0e600480803573ffffffffffffffffffffffffffffffffffffffff1690602001909190505061198d565b005b3415610a1b57600080fd5b610a47600480803573ffffffffffffffffffffffffffffffffffffffff16906020019091905050611d55565b604051808781526020018681526020018581526020018481526020018315151515815260200182151515158152602001965050505050505060405180910390f35b3415610a9357600080fd5b610a9b611dab565b604051808273ffffffffffffffffffffffffffffffffffffffff1673ffffffffffffffffffffffffffffffffffffffff16815260200191505060405180910390f35b3415610ae857600080fd5b610af0611dd1565b604051808273ffffffffffffffffffffffffffffffffffffffff1673ffffffffffffffffffffffffffffffffffffffff16815260200191505060405180910390f35b3415610b3d57600080fd5b610b69600480803573ffffffffffffffffffffffffffffffffffffffff16906020019091905050611df6565b604051808273ffffffffffffffffffffffffffffffffffffffff1673ffffffffffffffffffffffffffffffffffffffff16815260200191505060405180910390f35b3415610bb657600080fd5b610bbe611f46565b005b3415610bcb57600080fd5b610bf7600480803573ffffffffffffffffffffffffffffffffffffffff16906020019091905050612367565b005b3415610c0457600080fd5b610c0c61242a565b604051808273ffffffffffffffffffffffffffffffffffffffff1673ffffffffffffffffffffffffffffffffffffffff16815260200191505060405180910390f35b3415610c5957600080fd5b610c85600480803573ffffffffffffffffffffffffffffffffffffffff16906020019091905050612450565b005b3415610c9257600080fd5b610c9a6125a5565b604051808273ffffffffffffffffffffffffffffffffffffffff1673ffffffffffffffffffffffffffffffffffffffff16815260200191505060405180910390f35b3415610ce757600080fd5b610d32600480803573ffffffffffffffffffffffffffffffffffffffff1690602001909190803573ffffffffffffffffffffffffffffffffffffffff169060200190919050506125cb565b005b600981815481101515610d4357fe5b90600052602060002090016000915090505481565b600860009054906101000a900473ffffffffffffffffffffffffffffffffffffffff1681565b6000806000806000600560009054906101000a900473ffffffffffffffffffffffffffffffffffffffff1673ffffffffffffffffffffffffffffffffffffffff163373ffffffffffffffffffffffffffffffffffffffff1614158015610e325750600260009054906101000a900473ffffffffffffffffffffffffffffffffffffffff1673ffffffffffffffffffffffffffffffffffffffff163373ffffffffffffffffffffffffffffffffffffffff1614155b15610e3c57600080fd5b610e4586612c12565b9450600d60008673ffffffffffffffffffffffffffffffffffffffff1673ffffffffffffffffffffffffffffffffffffffff1681526020019081526020016000209350600360009054906101000a900473ffffffffffffffffffffffffffffffffffffffff1673ffffffffffffffffffffffffffffffffffffffff166370a08231866000604051602001526040518263ffffffff167c0100000000000000000000000000000000000000000000000000000000028152600401808273ffffffffffffffffffffffffffffffffffffffff1673ffffffffffffffffffffffffffffffffffffffff168152602001915050602060405180830381600087803b1515610f4d57600080fd5b6102c65a03f11515610f5e57600080fd5b5050506040518051905092506000831415610f7857600080fd5b600084600101541415156111195760098460000154815481101515610f9957fe5b906000526020600020900154915081830390506000811415610fba57600080fd5b8473ffffffffffffffffffffffffffffffffffffffff166309f29d1b826040518263ffffffff167c010000000000000000000000000000000000000000000000000000000002815260040180828152602001915050600060405180830381600087803b151561102857600080fd5b6102c65a03f1151561103957600080fd5b505050600760009054906101000a900473ffffffffffffffffffffffffffffffffffffffff1673ffffffffffffffffffffffffffffffffffffffff1663143a2e3186836040518363ffffffff167c0100000000000000000000000000000000000000000000000000000000028152600401808373ffffffffffffffffffffffffffffffffffffffff1673ffffffffffffffffffffffffffffffffffffffff16815260200182815260200192505050600060405180830381600087803b151561110057600080fd5b6102c65a03f1151561111157600080fd5b505050611269565b8473ffffffffffffffffffffffffffffffffffffffff1663600d70036040518163ffffffff167c0100000000000000000000000000000000000000000000000000000000028152600401600060405180830381600087803b151561117c57600080fd5b6102c65a03f1151561118d57600080fd5b505050600760009054906101000a900473ffffffffffffffffffffffffffffffffffffffff1673ffffffffffffffffffffffffffffffffffffffff1663143a2e3186856040518363ffffffff167c0100000000000000000000000000000000000000000000000000000000028152600401808373ffffffffffffffffffffffffffffffffffffffff1673ffffffffffffffffffffffffffffffffffffffff16815260200182815260200192505050600060405180830381600087803b151561125457600080fd5b6102c65a03f1151561126557600080fd5b5050505b505050505050565b600c60009054906101000a900460ff1681565b600860009054906101000a900473ffffffffffffffffffffffffffffffffffffffff1673ffffffffffffffffffffffffffffffffffffffff163373ffffffffffffffffffffffffffffffffffffffff161415156112e057600080fd5b600c60009054906101000a900460ff16156112fa57600080fd5b6001600c60006101000a81548160ff021916908315150217905550565b6000806000806000600460009054906101000a900473ffffffffffffffffffffffffffffffffffffffff1673ffffffffffffffffffffffffffffffffffffffff163373ffffffffffffffffffffffffffffffffffffffff1614151561137b57600080fd5b600c60009054906101000a900460ff161561139557600080fd5b61139e86612c12565b9450600d60008673ffffffffffffffffffffffffffffffffffffffff1673ffffffffffffffffffffffffffffffffffffffff1681526020019081526020016000209350600360009054906101000a900473ffffffffffffffffffffffffffffffffffffffff1673ffffffffffffffffffffffffffffffffffffffff166370a08231866000604051602001526040518263ffffffff167c0100000000000000000000000000000000000000000000000000000000028152600401808273ffffffffffffffffffffffffffffffffffffffff1673ffffffffffffffffffffffffffffffffffffffff168152602001915050602060405180830381600087803b15156114a657600080fd5b6102c65a03f115156114b757600080fd5b50505060405180519050925060016009805490500390505b60008112151561151d576009818154811015156114e857fe5b9060005260206000209001548310151561150f576115068482612d8b565b6001915061151d565b8080600190039150506114cf565b81151561152957600080fd5b600760009054906101000a900473ffffffffffffffffffffffffffffffffffffffff1673ffffffffffffffffffffffffffffffffffffffff1663901945c386866000015487600101546040518463ffffffff167c0100000000000000000000000000000000000000000000000000000000028152600401808473ffffffffffffffffffffffffffffffffffffffff1673ffffffffffffffffffffffffffffffffffffffff1681526020018381526020018281526020019350505050600060405180830381600087803b15156115fd57600080fd5b6102c65a03f1151561160e57600080fd5b505050505050505050565b600560009054906101000a900473ffffffffffffffffffffffffffffffffffffffff1681565b600260009054906101000a900473ffffffffffffffffffffffffffffffffffffffff1681565b600b5481565b600080600080600260009054906101000a900473ffffffffffffffffffffffffffffffffffffffff1673ffffffffffffffffffffffffffffffffffffffff163373ffffffffffffffffffffffffffffffffffffffff161415156116cd57600080fd5b600c60009054906101000a900460ff16156116e757600080fd5b600980549050851015156116fa57600080fd5b61170386612c12565b9350600d60008573ffffffffffffffffffffffffffffffffffffffff1673ffffffffffffffffffffffffffffffffffffffff16815260200190815260200160002092508260000154851015151561175957600080fd5b600360009054906101000a900473ffffffffffffffffffffffffffffffffffffffff1673ffffffffffffffffffffffffffffffffffffffff166370a08231856000604051602001526040518263ffffffff167c0100000000000000000000000000000000000000000000000000000000028152600401808273ffffffffffffffffffffffffffffffffffffffff1673ffffffffffffffffffffffffffffffffffffffff168152602001915050602060405180830381600087803b151561181e57600080fd5b6102c65a03f1151561182f57600080fd5b50505060405180519050915060098581548110151561184a57fe5b906000526020600020900154905080821015151561186757600080fd5b6118718386612d8b565b600760009054906101000a900473ffffffffffffffffffffffffffffffffffffffff1673ffffffffffffffffffffffffffffffffffffffff1663901945c385856000015486600101546040518463ffffffff167c0100000000000000000000000000000000000000000000000000000000028152600401808473ffffffffffffffffffffffffffffffffffffffff1673ffffffffffffffffffffffffffffffffffffffff1681526020018381526020018281526020019350505050600060405180830381600087803b151561194557600080fd5b6102c65a03f1151561195657600080fd5b505050505050505050565b600a5481565b600660009054906101000a900473ffffffffffffffffffffffffffffffffffffffff1681565b600080600660009054906101000a900473ffffffffffffffffffffffffffffffffffffffff1673ffffffffffffffffffffffffffffffffffffffff163373ffffffffffffffffffffffffffffffffffffffff1614158015611a3c5750600260009054906101000a900473ffffffffffffffffffffffffffffffffffffffff1673ffffffffffffffffffffffffffffffffffffffff163373ffffffffffffffffffffffffffffffffffffffff1614155b15611a4657600080fd5b611a4f83612c12565b9150600d60008373ffffffffffffffffffffffffffffffffffffffff1673ffffffffffffffffffffffffffffffffffffffff1681526020019081526020016000209050600081600101541415611aa457600080fd5b600260009054906101000a900473ffffffffffffffffffffffffffffffffffffffff1673ffffffffffffffffffffffffffffffffffffffff163373ffffffffffffffffffffffffffffffffffffffff161415611b1c5760018160040160016101000a81548160ff021916908315150217905550611d50565b8060040160019054906101000a900460ff1615611d4a57611b6660098260000154815481101515611b4957fe5b906000526020600020900154600b54612f2090919063ffffffff16565b600b81905550600d60008373ffffffffffffffffffffffffffffffffffffffff1673ffffffffffffffffffffffffffffffffffffffff1681526020019081526020016000206000808201600090556001820160009055600282016000905560038201600090556004820160006101000a81549060ff02191690556004820160016101000a81549060ff021916905550508173ffffffffffffffffffffffffffffffffffffffff1663600d70036040518163ffffffff167c0100000000000000000000000000000000000000000000000000000000028152600401600060405180830381600087803b1515611c5957600080fd5b6102c65a03f11515611c6a57600080fd5b505050600760009054906101000a900473ffffffffffffffffffffffffffffffffffffffff1673ffffffffffffffffffffffffffffffffffffffff16637a91147983426040518363ffffffff167c0100000000000000000000000000000000000000000000000000000000028152600401808373ffffffffffffffffffffffffffffffffffffffff1673ffffffffffffffffffffffffffffffffffffffff16815260200182815260200192505050600060405180830381600087803b1515611d3157600080fd5b6102c65a03f11515611d4257600080fd5b505050611d4f565b600080fd5b5b505050565b600d6020528060005260406000206000915090508060000154908060010154908060020154908060030154908060040160009054906101000a900460ff16908060040160019054906101000a900460ff16905086565b600460009054906101000a900473ffffffffffffffffffffffffffffffffffffffff1681565b6000809054906101000a900473ffffffffffffffffffffffffffffffffffffffff1681565b6000600173__Relay_________________________________6302e1fc4690913073ffffffffffffffffffffffffffffffffffffffff1663b3d0a72f90507c010000000000000000000000000000000000000000000000000000000002856000604051602001526040518463ffffffff167c010000000000000000000000000000000000000000000000000000000002815260040180848152602001837bffffffffffffffffffffffffffffffffffffffffffffffffffffffff19167bffffffffffffffffffffffffffffffffffffffffffffffffffffffff191681526020018273ffffffffffffffffffffffffffffffffffffffff1673ffffffffffffffffffffffffffffffffffffffff168152602001935050505060206040518083038186803b1515611f2457600080fd5b6102c65a03f41515611f3557600080fd5b505050604051805190509050919050565b6000600c60019054906101000a900460ff1615611f6257600080fd5b6001600c60016101000a81548160ff021916908315150217905550600d60003373ffffffffffffffffffffffffffffffffffffffff1673ffffffffffffffffffffffffffffffffffffffff1681526020019081526020016000209050600081600101541415611fd057600080fd5b8060040160009054906101000a900460ff16151561211957428160020181905550600a54816001015482600201540381151561200857fe5b06600a5403816003018190555060018160040160006101000a81548160ff021916908315150217905550600760009054906101000a900473ffffffffffffffffffffffffffffffffffffffff1673ffffffffffffffffffffffffffffffffffffffff1663de297a883383600301548460020154016040518363ffffffff167c0100000000000000000000000000000000000000000000000000000000028152600401808373ffffffffffffffffffffffffffffffffffffffff1673ffffffffffffffffffffffffffffffffffffffff16815260200182815260200192505050600060405180830381600087803b151561210057600080fd5b6102c65a03f1151561211157600080fd5b505050612349565b8060030154816002015401421015156123435761215f6009826000015481548110151561214257fe5b906000526020600020900154600b54612f2090919063ffffffff16565b600b81905550600d60003373ffffffffffffffffffffffffffffffffffffffff1673ffffffffffffffffffffffffffffffffffffffff1681526020019081526020016000206000808201600090556001820160009055600282016000905560038201600090556004820160006101000a81549060ff02191690556004820160016101000a81549060ff021916905550503373ffffffffffffffffffffffffffffffffffffffff1663600d70036040518163ffffffff167c0100000000000000000000000000000000000000000000000000000000028152600401600060405180830381600087803b151561225257600080fd5b6102c65a03f1151561226357600080fd5b505050600760009054906101000a900473ffffffffffffffffffffffffffffffffffffffff1673ffffffffffffffffffffffffffffffffffffffff16637a91147933426040518363ffffffff167c0100000000000000000000000000000000000000000000000000000000028152600401808373ffffffffffffffffffffffffffffffffffffffff1673ffffffffffffffffffffffffffffffffffffffff16815260200182815260200192505050600060405180830381600087803b151561232a57600080fd5b6102c65a03f1151561233b57600080fd5b505050612348565b600080fd5b5b6000600c60016101000a81548160ff02191690831515021790555050565b6000809054906101000a900473ffffffffffffffffffffffffffffffffffffffff1673ffffffffffffffffffffffffffffffffffffffff163373ffffffffffffffffffffffffffffffffffffffff161415156123c257600080fd5b60008173ffffffffffffffffffffffffffffffffffffffff1614156123e657600080fd5b80600260006101000a81548173ffffffffffffffffffffffffffffffffffffffff021916908373ffffffffffffffffffffffffffffffffffffffff16021790555050565b600760009054906101000a900473ffffffffffffffffffffffffffffffffffffffff1681565b6000809054906101000a900473ffffffffffffffffffffffffffffffffffffffff1673ffffffffffffffffffffffffffffffffffffffff163373ffffffffffffffffffffffffffffffffffffffff161415156124ab57600080fd5b600073ffffffffffffffffffffffffffffffffffffffff168173ffffffffffffffffffffffffffffffffffffffff16141515156124e757600080fd5b8073ffffffffffffffffffffffffffffffffffffffff166000809054906101000a900473ffffffffffffffffffffffffffffffffffffffff1673ffffffffffffffffffffffffffffffffffffffff167f8be0079c531659141344cd1fd0a4f28419497f9722a3daafe3b4186f6b6457e060405160405180910390a3806000806101000a81548173ffffffffffffffffffffffffffffffffffffffff021916908373ffffffffffffffffffffffffffffffffffffffff16021790555050565b600360009054906101000a900473ffffffffffffffffffffffffffffffffffffffff1681565b600260009054906101000a900473ffffffffffffffffffffffffffffffffffffffff1673ffffffffffffffffffffffffffffffffffffffff163373ffffffffffffffffffffffffffffffffffffffff1614151561262757600080fd5b600c60009054906101000a900460ff161561264157600080fd5b6000600173__Relay_________________________________6302e1fc4690913073ffffffffffffffffffffffffffffffffffffffff1663b3d0a72f90507c010000000000000000000000000000000000000000000000000000000002866000604051602001526040518463ffffffff167c010000000000000000000000000000000000000000000000000000000002815260040180848152602001837bffffffffffffffffffffffffffffffffffffffffffffffffffffffff19167bffffffffffffffffffffffffffffffffffffffffffffffffffffffff191681526020018273ffffffffffffffffffffffffffffffffffffffff1673ffffffffffffffffffffffffffffffffffffffff168152602001935050505060206040518083038186803b151561276f57600080fd5b6102c65a03f4151561278057600080fd5b5050506040518051905073ffffffffffffffffffffffffffffffffffffffff161415156127ac57600080fd5b60008173ffffffffffffffffffffffffffffffffffffffff1614156127cf578190505b600173__Relay_________________________________639711af7a90913073ffffffffffffffffffffffffffffffffffffffff1663b3d0a72f90507c0100000000000000000000000000000000000000000000000000000000028585600360009054906101000a900473ffffffffffffffffffffffffffffffffffffffff166040518663ffffffff167c010000000000000000000000000000000000000000000000000000000002815260040180868152602001857bffffffffffffffffffffffffffffffffffffffffffffffffffffffff19167bffffffffffffffffffffffffffffffffffffffffffffffffffffffff191681526020018473ffffffffffffffffffffffffffffffffffffffff1673ffffffffffffffffffffffffffffffffffffffff1681526020018373ffffffffffffffffffffffffffffffffffffffff1673ffffffffffffffffffffffffffffffffffffffff1681526020018273ffffffffffffffffffffffffffffffffffffffff1673ffffffffffffffffffffffffffffffffffffffff1681526020019550505050505060006040518083038186803b151561297c57600080fd5b6102c65a03f4151561298d57600080fd5b505050600760009054906101000a900473ffffffffffffffffffffffffffffffffffffffff1673ffffffffffffffffffffffffffffffffffffffff1663fcfde0e0600173__Relay_________________________________6302e1fc4690913073ffffffffffffffffffffffffffffffffffffffff1663b3d0a72f90507c010000000000000000000000000000000000000000000000000000000002876000604051602001526040518463ffffffff167c010000000000000000000000000000000000000000000000000000000002815260040180848152602001837bffffffffffffffffffffffffffffffffffffffffffffffffffffffff19167bffffffffffffffffffffffffffffffffffffffffffffffffffffffff191681526020018273ffffffffffffffffffffffffffffffffffffffff1673ffffffffffffffffffffffffffffffffffffffff168152602001935050505060206040518083038186803b1515612afa57600080fd5b6102c65a03f41515612b0b57600080fd5b5050506040518051905084846040518463ffffffff167c0100000000000000000000000000000000000000000000000000000000028152600401808473ffffffffffffffffffffffffffffffffffffffff1673ffffffffffffffffffffffffffffffffffffffff1681526020018373ffffffffffffffffffffffffffffffffffffffff1673ffffffffffffffffffffffffffffffffffffffff1681526020018273ffffffffffffffffffffffffffffffffffffffff1673ffffffffffffffffffffffffffffffffffffffff1681526020019350505050600060405180830381600087803b1515612bfa57600080fd5b6102c65a03f11515612c0b57600080fd5b5050505050565b600080600173__Relay_________________________________6302e1fc4690913073ffffffffffffffffffffffffffffffffffffffff1663b3d0a72f90507c010000000000000000000000000000000000000000000000000000000002866000604051602001526040518463ffffffff167c010000000000000000000000000000000000000000000000000000000002815260040180848152602001837bffffffffffffffffffffffffffffffffffffffffffffffffffffffff19167bffffffffffffffffffffffffffffffffffffffffffffffffffffffff191681526020018273ffffffffffffffffffffffffffffffffffffffff1673ffffffffffffffffffffffffffffffffffffffff168152602001935050505060206040518083038186803b1515612d4157600080fd5b6102c65a03f41515612d5257600080fd5b50505060405180519050905060008173ffffffffffffffffffffffffffffffffffffffff161415612d8257600080fd5b80915050919050565b8160040160009054906101000a900460ff1615612e4a578160000154811115612e1457612e0d612dfc60098460000154815481101515612dc757fe5b906000526020600020900154600984815481101515612de257fe5b906000526020600020900154612f2090919063ffffffff16565b600b54612f3990919063ffffffff16565b600b819055505b60008260040160006101000a81548160ff0219169083151502179055506000826002018190555060008260030181905550612f0a565b60008260010154141515612ed3578160000154811415612e6957600080fd5b612ec8612eb760098460000154815481101515612e8257fe5b906000526020600020900154600984815481101515612e9d57fe5b906000526020600020900154612f2090919063ffffffff16565b600b54612f3990919063ffffffff16565b600b81905550612f09565b612f02600982815481101515612ee557fe5b906000526020600020900154600b54612f3990919063ffffffff16565b600b819055505b5b8082600001819055504282600101819055505050565b6000828211151515612f2e57fe5b818303905092915050565b6000808284019050838110151515612f4d57fe5b8091505092915050565b600173__Relay_________________________________635d8b59d390913073ffffffffffffffffffffffffffffffffffffffff16631c5a9d9c90507c0100000000000000000000000000000000000000000000000000000000026040518363ffffffff167c010000000000000000000000000000000000000000000000000000000002815260040180838152602001827bffffffffffffffffffffffffffffffffffffffffffffffffffffffff19167bffffffffffffffffffffffffffffffffffffffffffffffffffffffff191681526020019250505060006040518083038186803b151561304657600080fd5b6102c65a03f4151561305757600080fd5b505050600173__Relay_________________________________635d8b59d390913073ffffffffffffffffffffffffffffffffffffffff16630a79309b90507c0100000000000000000000000000000000000000000000000000000000026040518363ffffffff167c010000000000000000000000000000000000000000000000000000000002815260040180838152602001827bffffffffffffffffffffffffffffffffffffffffffffffffffffffff19167bffffffffffffffffffffffffffffffffffffffffffffffffffffffff191681526020019250505060006040518083038186803b151561314957600080fd5b6102c65a03f4151561315a57600080fd5b505050600173__Relay_________________________________635d8b59d390913073ffffffffffffffffffffffffffffffffffffffff166372e670b090507c0100000000000000000000000000000000000000000000000000000000026040518363ffffffff167c010000000000000000000000000000000000000000000000000000000002815260040180838152602001827bffffffffffffffffffffffffffffffffffffffffffffffffffffffff19167bffffffffffffffffffffffffffffffffffffffffffffffffffffffff191681526020019250505060006040518083038186803b151561324c57600080fd5b6102c65a03f4151561325d57600080fd5b505050600173__Relay_________________________________6302e1fc4690913073ffffffffffffffffffffffffffffffffffffffff16631c5a9d9c90507c010000000000000000000000000000000000000000000000000000000002306000604051602001526040518463ffffffff167c010000000000000000000000000000000000000000000000000000000002815260040180848152602001837bffffffffffffffffffffffffffffffffffffffffffffffffffffffff19167bffffffffffffffffffffffffffffffffffffffffffffffffffffffff191681526020018273ffffffffffffffffffffffffffffffffffffffff1673ffffffffffffffffffffffffffffffffffffffff168152602001935050505060206040518083038186803b151561338c57600080fd5b6102c65a03f4151561339d57600080fd5b50505060405180519050600460006101000a81548173ffffffffffffffffffffffffffffffffffffffff021916908373ffffffffffffffffffffffffffffffffffffffff160217905550600173__Relay_________________________________6302e1fc4690913073ffffffffffffffffffffffffffffffffffffffff16630a79309b90507c010000000000000000000000000000000000000000000000000000000002306000604051602001526040518463ffffffff167c010000000000000000000000000000000000000000000000000000000002815260040180848152602001837bffffffffffffffffffffffffffffffffffffffffffffffffffffffff19167bffffffffffffffffffffffffffffffffffffffffffffffffffffffff191681526020018273ffffffffffffffffffffffffffffffffffffffff1673ffffffffffffffffffffffffffffffffffffffff168152602001935050505060206040518083038186803b151561351357600080fd5b6102c65a03f4151561352457600080fd5b50505060405180519050600560006101000a81548173ffffffffffffffffffffffffffffffffffffffff021916908373ffffffffffffffffffffffffffffffffffffffff160217905550600173__Relay_________________________________6302e1fc4690913073ffffffffffffffffffffffffffffffffffffffff166372e670b090507c010000000000000000000000000000000000000000000000000000000002306000604051602001526040518463ffffffff167c010000000000000000000000000000000000000000000000000000000002815260040180848152602001837bffffffffffffffffffffffffffffffffffffffffffffffffffffffff19167bffffffffffffffffffffffffffffffffffffffffffffffffffffffff191681526020018273ffffffffffffffffffffffffffffffffffffffff1673ffffffffffffffffffffffffffffffffffffffff168152602001935050505060206040518083038186803b151561369a57600080fd5b6102c65a03f415156136ab57600080fd5b50505060405180519050600660006101000a81548173ffffffffffffffffffffffffffffffffffffffff021916908373ffffffffffffffffffffffffffffffffffffffff1602179055505600a165627a7a7230582038268d4404eb3305624762503b44e89bee4f34a4cd4674ef63b61954e873df270029",
  "source": "pragma solidity ^0.4.18;\n\nimport './Relay.sol'; // implicitly imports PublicProxy, TrustedProxy, and Token also\nimport './Logger.sol';\nimport './SafeMath.sol';\nimport './Ownable.sol';\n\n/* A token-agnostic implementation of a contract to manage token-based memberships */\ncontract MembershipController is Ownable {\n    using SafeMath for uint;\n    using Relay for Relay.Data;\n    Relay.Data relayLib;\n\n    /* The worker of the contract. */\n    address public worker;\n\n    /* The address of the ERC20 contract whose tokens will be locked by this manager. */\n    Token public token;\n\n    /* The address for the public relay to call the activate function. */\n    address public activateRelay;\n\n    /* The address for the public relay to call the retrieve function. */\n    address public retrieveRelay;\n\n    /* The address for the public relay to call the override function. */\n    address public overrideRelay;\n\n    /* The address for the central logger contract. */\n    Logger public logger;\n\n    /* The address that is allowed to deprecate this contract. */\n    address public deprecator;\n\n    /* Tier level requirements determined by the owner during creation. */\n    uint[] public tiers;\n\n    /* The membership period duration in seconds. */\n    uint public membershipPeriodDuration;\n\n    /* Total amount locked in active memberships through this contract. */\n    uint public totalLocked;\n\n    /* The boolean that signifies a deprecated MembershipController contract. */\n    bool public deprecated;\n\n    /* Mutex */\n    bool private locked;\n\n    /* Stores all relevant information for a locked position.\n     *\n     * tier: stores the tier level the user qualifies for upon locking.\n     *\n     * timeStarted: records time user activated their membership\n     *\n     * timeCancelled: records time user requested auto-renew cancellation\n     *\n     * timeUntilExpiration: stores the duration of time from timeCancelled until the current period expires\n     *\n     * cancelled: records whether a cancellation has been requested\n     *\n     * overrideApproved: whether the worker has approved\n     */\n    struct Membership {\n        uint tier;\n        uint timeStarted;\n        uint timeCancelled;\n        uint timeUntilExpiration;\n        bool cancelled;\n        bool overrideApproved;\n    }\n\n    /**\n     *  Maps relay addresses -> Memberships\n     */\n    mapping (address => Membership) public memberships;\n\n    /**\n     *  Constructor function assigns owner, worker, token, logger, deprecator, tiers, and duration of membership period (in seconds).\n     *      - Tiers should be passed in [lowest, ..., highest]\n     *      - membershipPeriodDuration is the duration of each membership period, and is assumed to be a number of seconds\n     *          - 2592000 seconds = 30 days\n     *\n     *  Also initializes the public activate, retrieve, and override relays\n     */\n    function MembershipController(address _worker, address _token, address _logger, address _deprecator, uint[] _tiers, uint _membershipPeriodDuration) public {\n        // enforce invariant that tiers are entered in ascending order\n        for (uint i; i < _tiers.length - 1; i++) {\n            for (uint j = i + 1; j < _tiers.length; j++) {\n                require(_tiers[i] < _tiers[j]);\n            }\n        }\n\n        worker = _worker;\n        token = Token(_token);\n        logger = Logger(_logger);\n        deprecator = _deprecator;\n        tiers = _tiers;\n        membershipPeriodDuration = _membershipPeriodDuration;\n        initializeRelays();\n    }\n\n    /***************************************\n     *********** Private helpers ************\n     ***************************************/\n\n    function initializeRelays() private {\n        relayLib.addPublicRelay(this.activate.selector);\n        relayLib.addPublicRelay(this.retrieve.selector);\n        relayLib.addPublicRelay(this.override.selector);\n        activateRelay = relayLib.getRelay(this.activate.selector, this);\n        retrieveRelay = relayLib.getRelay(this.retrieve.selector, this);\n        overrideRelay = relayLib.getRelay(this.override.selector, this);\n    }\n\n    function getRelay(address _user) private view returns (address) {\n        // validate\n        address relay = relayLib.getRelay(this.cancelAndRetrieve.selector, _user);\n        // needs to initialize their relay\n        if (relay == 0x0) revert();\n\n        return relay;\n    }\n\n    function activateMembership(Membership storage membership, uint tier) private {\n        // allow reactivating/upgrading cancelled membership for user\n        if (membership.cancelled) {\n\n            // if upgrading, add newly locked tokens to totalLocked\n            if (tier > membership.tier) {\n                totalLocked = totalLocked.add(tiers[tier].sub(tiers[membership.tier]));\n            }\n\n            // reset cancellation fields\n            membership.cancelled = false;\n            membership.timeCancelled = 0;\n            membership.timeUntilExpiration = 0;\n        }\n        else if (membership.timeStarted != 0) {\n            // revert if already locked at this tier\n            if (tier == membership.tier) revert();\n            // only add upgraded difference\n            else {\n                totalLocked = totalLocked.add(tiers[tier].sub(tiers[membership.tier]));\n            }\n        }\n        else {\n            totalLocked = totalLocked.add(tiers[tier]);\n        }\n\n        membership.tier = tier;\n        membership.timeStarted = now;\n    }\n\n    /***************************************\n     *********** Query helpers *************\n     ***************************************/\n\n    function getUserRelay(address _user) public view returns (address) {\n        return relayLib.getRelay(this.cancelAndRetrieve.selector, _user);\n    }\n\n    /***************************************\n     ******** Deprecation methods **********\n     ***************************************/\n\n    modifier onlyDeprecator {\n        if (msg.sender != deprecator) revert();\n        _;\n    }\n\n    modifier ifNotDeprecated {\n        if (deprecated) revert();\n        _;\n    }\n\n    function deprecate() public onlyDeprecator ifNotDeprecated {\n        deprecated = true;\n    }\n\n    /***************************************\n     ********* New User methods ************\n     ***************************************/\n\n    modifier onlyNewUser {\n        if (relayLib.getRelay(this.cancelAndRetrieve.selector, msg.sender) != 0x0) revert();\n        _;\n    }\n\n    /**\n     *  Allow users to initialize their personal relay by sending 0 ETH to this contract\n     *\n     *  Relays will be reused for each address; relays are reset upon retrieval (post-cancellation or through override)\n     *  Resetting only sets it to a default state; original owner will always be the owner of any given relay.\n     */\n    function () public onlyNewUser ifNotDeprecated {\n        relayLib.addRelay(this.cancelAndRetrieve.selector, msg.sender, msg.sender, address(token));\n        logger.logUserRelayCreated(relayLib.getRelay(this.cancelAndRetrieve.selector, msg.sender), msg.sender, msg.sender);\n    }\n\n    /***************************************\n     ********** Worker methods **************\n     ***************************************/\n\n    modifier onlyWorker {\n        if (msg.sender != worker) revert();\n        _;\n    }\n\n    /**\n     *  Allows worker to create a relay on behalf of a user\n     */\n    function createRelayForUser(address _user, address _recipient) public onlyWorker ifNotDeprecated {\n        // make sure user doesn't already have a relay\n        if (relayLib.getRelay(this.cancelAndRetrieve.selector, _user) != 0x0) revert();\n        if (_recipient == 0x0) {\n            _recipient = _user;\n        }\n\n        relayLib.addRelay(this.cancelAndRetrieve.selector, _user, _recipient, address(token));\n        logger.logUserRelayCreated(relayLib.getRelay(this.cancelAndRetrieve.selector, _user), _user, _recipient);\n    }\n\n    /**\n     *  Allows activating at a specific tier\n     */\n    function activateAtTier(address _user, uint _tier) public onlyWorker ifNotDeprecated {\n        // revert if tier doesn't exist\n        require(_tier < tiers.length);\n\n        address relay = getRelay(_user);\n\n        // retrieve stored membership info\n        Membership storage membership = memberships[relay];\n\n        // throw if attempting to downgrade\n        require(_tier >= membership.tier);\n\n        // retrieve relay's token balance and required amount of tokens for requested tier\n        uint balance = token.balanceOf(relay);\n        uint requiredAmount = tiers[_tier];\n\n        // revert if relay has fewer tokens than required amount for tier\n        require(balance >= requiredAmount);\n\n        activateMembership(membership, _tier);\n\n        logger.logMembershipActivated(relay, membership.tier, membership.timeStarted);\n    }\n\n    /***************************************\n     ******** Public Relay methods *********\n     ***************************************/\n\n    modifier onlyActivateRelay {\n        if (msg.sender != activateRelay) revert();\n        _;\n    }\n\n    modifier onlyRetrieveRelayOrWorker {\n        if (msg.sender != retrieveRelay && msg.sender != worker) revert();\n        _;\n    }\n\n    modifier onlyOverrideRelayOrWorker {\n        if (msg.sender != overrideRelay && msg.sender != worker) revert();\n        _;\n    }\n\n    /**\n     *  Allows user to activate membership via a public relay\n     */\n    function activate(address _user) public onlyActivateRelay ifNotDeprecated {\n        address relay = getRelay(_user);\n\n        Membership storage membership = memberships[relay];\n\n        // determine tier based on current tier limits\n        // check if they qualify for highest tier first\n        uint balance = token.balanceOf(relay);\n        bool activated;\n        for (int i = int(tiers.length - 1); i >= 0; i--) {\n            if (balance >= tiers[uint(i)]) {\n\n                activateMembership(membership, uint(i));\n                activated = true;\n\n                break;\n            }\n        }\n\n        // if balance < minimum tier requirement\n        if (!activated) revert();\n        // else..\n        logger.logMembershipActivated(relay, membership.tier, membership.timeStarted);\n    }\n\n    /**\n     *  Allows user to retrieve any unlocked tokens from their relay\n     */\n    function retrieve(address _user) public onlyRetrieveRelayOrWorker {\n        address relay = getRelay(_user);\n        Membership storage membership = memberships[relay];\n\n        uint balance = token.balanceOf(relay);\n        // if relay has no tokens, throw\n        if (balance == 0) revert();\n\n        // if locked, only retrieve not locked\n        if (membership.timeStarted != 0) {\n            // calculate amount to transfer\n            uint lockedAmount = tiers[membership.tier];\n            uint transferAmount = balance - lockedAmount;\n            // all available tokens are locked so revert\n            if (transferAmount == 0) revert();\n            TrustedProxy(relay).retrieveTokens(transferAmount);\n            logger.logExcessTokensRetrieved(relay, transferAmount);\n        }\n        // if not locked, retrieve all\n        else {\n            TrustedProxy(relay).retrieveTokens();\n            logger.logExcessTokensRetrieved(relay, balance);\n        }\n    }\n\n    /**\n     *  Multisig function to allow token retrieval bypassing timeout\n     *\n     *  Only to be used by support.\n     */\n    function override(address _user) public onlyOverrideRelayOrWorker {\n        address relay = getRelay(_user);\n        Membership storage membership = memberships[relay];\n        // not locked, so no need for this function; revert\n        if (membership.timeStarted == 0) revert();\n\n        if (msg.sender == worker) {\n            membership.overrideApproved = true;\n        }\n        else if (membership.overrideApproved) {\n            // adjust global totals\n            totalLocked = totalLocked.sub(tiers[membership.tier]);\n\n            // reset this relay's membership\n            delete memberships[relay];\n\n            // transfer all tokens to recipient\n            TrustedProxy(relay).retrieveTokens();\n\n            // log event\n            logger.logMembershipTokensRetrieved(relay, now);\n        }\n        else revert();\n    }\n\n    /***************************************\n     ********** Mutex methods **************\n     ***************************************/\n\n    modifier lock {\n        if (locked) revert();\n        locked = true;\n        _;\n        locked = false;\n    }\n\n    /**\n     *  Allows user's relay to cancel their membership and retrieve tokens after their current membership period has expired\n     *\n     *  This can be public because only relays will be included in the memberships mapping, so there's no risk.\n     *\n     *  Lock behind a mutex to prevent re-entry just to be safe, though even in the worst case, a malicious user could\n     *  never retrieve more tokens than their relay contains.\n     */\n    function cancelAndRetrieve() public lock {\n        // first call to this function should cancel a membership\n        // second call should retrieve tokens assuming appropriate time has expired\n\n        Membership storage membership = memberships[msg.sender];\n        // not locked so revert\n        if (membership.timeStarted == 0) revert();\n        // 1st call: needs to be cancelled\n        if (!membership.cancelled) {\n            membership.timeCancelled = now;\n            membership.timeUntilExpiration = membershipPeriodDuration - ((membership.timeCancelled - membership.timeStarted) % membershipPeriodDuration);\n            membership.cancelled = true;\n\n            // log event\n            logger.logMembershipCancelled(msg.sender, (membership.timeCancelled + membership.timeUntilExpiration));\n        }\n        // 2nd call: retrieves tokens if membership has expired\n        else if (now >= membership.timeCancelled + membership.timeUntilExpiration) {\n            // adjust global totals\n            totalLocked = totalLocked.sub(tiers[membership.tier]);\n\n            // reset this relay's membership\n            delete memberships[msg.sender];\n\n            // transfer all tokens to recipient\n            TrustedProxy(msg.sender).retrieveTokens();\n\n            // log event\n            logger.logMembershipTokensRetrieved(msg.sender, now);\n        }\n        // throw if the membership has not expired yet\n        else revert();\n    }\n\n    /***************************************\n     ********** Owner methods **************\n     ***************************************/\n\n    function transferWorker(address _worker) public onlyOwner {\n        if (_worker == 0x0) revert();\n        worker = _worker;\n    }\n}",
  "sourcePath": "/media/m/MembershipController/contracts/MembershipController.sol",
  "compiler": {
    "name": "solc",
    "version": "0.4.19+commit.c4cbbb05.Emscripten.clang"
  },
  "schemaVersion": "2.0.0",
  "updatedAt": "2018-04-18T02:25:26.471Z"
}