{
  "contractName": "PublicProxy",
  "abi": [
    {
      "constant": true,
      "inputs": [],
      "name": "host",
      "outputs": [
        {
          "name": "",
          "type": "address"
        }
      ],
      "payable": false,
      "stateMutability": "view",
      "type": "function"
    },
    {
      "inputs": [
        {
          "name": "_methodId",
          "type": "bytes4"
        },
        {
          "name": "_host",
          "type": "address"
        }
      ],
      "payable": false,
      "stateMutability": "nonpayable",
      "type": "constructor"
    },
    {
      "payable": false,
      "stateMutability": "nonpayable",
      "type": "fallback"
    }
  ],
  "bytecode": "0x6060604052341561000f57600080fd5b6040516040806102be83398101604052808051906020019091908051906020019091905050806000806101000a81548173ffffffffffffffffffffffffffffffffffffffff021916908373ffffffffffffffffffffffffffffffffffffffff16021790555081600060146101000a81548163ffffffff02191690837c01000000000000000000000000000000000000000000000000000000009004021790555050506101fe806100c06000396000f300606060405260043610610041576000357c0100000000000000000000000000000000000000000000000000000000900463ffffffff168063f437bc5914610158575b341561004c57600080fd5b6000809054906101000a900473ffffffffffffffffffffffffffffffffffffffff1673ffffffffffffffffffffffffffffffffffffffff16600060149054906101000a90047c0100000000000000000000000000000000000000000000000000000000027c01000000000000000000000000000000000000000000000000000000009004336040518263ffffffff167c0100000000000000000000000000000000000000000000000000000000028152600401808273ffffffffffffffffffffffffffffffffffffffff1673ffffffffffffffffffffffffffffffffffffffff16815260200191505060006040518083038160008761646e5a03f192505050151561015657600080fd5b005b341561016357600080fd5b61016b6101ad565b604051808273ffffffffffffffffffffffffffffffffffffffff1673ffffffffffffffffffffffffffffffffffffffff16815260200191505060405180910390f35b6000809054906101000a900473ffffffffffffffffffffffffffffffffffffffff16815600a165627a7a72305820807a0131ff184e49ba47e087040a585c53f716474625d6a6f2980552346609780029",
  "source": "pragma solidity ^0.4.18;\n\n/**\n *  A variant of the standard Proxy contract, modified to allow anyone to use it.\n *  Used to provide multiple \"fallback\" functions for a single host contract.\n *\n *  Because the Proxy is publicly accessible, any authorization checks must be handled within the host contract.\n */\ncontract PublicProxy {\n\n    /* The address of the host contract. */\n    address public host;\n\n    /**\n     *  The methodId of the host contract method.\n     *\n     *  This is equivalent to bytes4(keccak256(methodName)),\n     *  where the method name includes the parentheses as if you were calling the function,\n     *  and the parameter types, in order, separated by commas with no whitespace included.\n     *      Example: methodId = bytes4(keccak256(\"transfer(uint256,address)\"))\n     */\n    bytes4 methodId;\n\n    function PublicProxy(bytes4 _methodId, address _host) public {\n        host = _host;\n        methodId = _methodId;\n    }\n\n    function() public {\n        // if host call throws, throw this transaction as well\n        if(!host.call(methodId, msg.sender)) revert();\n    }\n}\n",
  "sourcePath": "/media/m/MembershipController/contracts/PublicProxy.sol",
  "compiler": {
    "name": "solc",
    "version": "0.4.19+commit.c4cbbb05.Emscripten.clang"
  },
  "schemaVersion": "2.0.0",
  "updatedAt": "2018-04-18T01:49:25.636Z"
}