{
  "contractName": "Relay",
  "abi": [
    {
      "constant": false,
      "inputs": [
        {
          "name": "self",
          "type": "Relay.Data storage"
        },
        {
          "name": "methodId",
          "type": "bytes4"
        }
      ],
      "name": "addPublicRelay",
      "outputs": [],
      "payable": false,
      "stateMutability": "nonpayable",
      "type": "function"
    },
    {
      "constant": false,
      "inputs": [
        {
          "name": "self",
          "type": "Relay.Data storage"
        },
        {
          "name": "methodId",
          "type": "bytes4"
        },
        {
          "name": "owner",
          "type": "address"
        },
        {
          "name": "recipient",
          "type": "address"
        },
        {
          "name": "token",
          "type": "address"
        }
      ],
      "name": "addRelay",
      "outputs": [],
      "payable": false,
      "stateMutability": "nonpayable",
      "type": "function"
    },
    {
      "constant": true,
      "inputs": [
        {
          "name": "self",
          "type": "Relay.Data storage"
        },
        {
          "name": "methodId",
          "type": "bytes4"
        },
        {
          "name": "owner",
          "type": "address"
        }
      ],
      "name": "getRelay",
      "outputs": [
        {
          "name": "",
          "type": "address"
        }
      ],
      "payable": false,
      "stateMutability": "view",
      "type": "function"
    }
  ],
  "bytecode": "0x6060604052341561000f57600080fd5b6118a78061001e6000396000f300606060405260043610610057576000357c0100000000000000000000000000000000000000000000000000000000900463ffffffff16806302e1fc461461005c5780635d8b59d3146100fb5780639711af7a1461013b575b600080fd5b6100b960048080359060200190919080357bffffffffffffffffffffffffffffffffffffffffffffffffffffffff191690602001909190803573ffffffffffffffffffffffffffffffffffffffff169060200190919050506101d8565b604051808273ffffffffffffffffffffffffffffffffffffffff1673ffffffffffffffffffffffffffffffffffffffff16815260200191505060405180910390f35b61013960048080359060200190919080357bffffffffffffffffffffffffffffffffffffffffffffffffffffffff1916906020019091905050610294565b005b6101d660048080359060200190919080357bffffffffffffffffffffffffffffffffffffffffffffffffffffffff191690602001909190803573ffffffffffffffffffffffffffffffffffffffff1690602001909190803573ffffffffffffffffffffffffffffffffffffffff1690602001909190803573ffffffffffffffffffffffffffffffffffffffff1690602001909190505061044d565b005b6000836000016000847bffffffffffffffffffffffffffffffffffffffffffffffffffffffff19167bffffffffffffffffffffffffffffffffffffffffffffffffffffffff1916815260200190815260200160002060008373ffffffffffffffffffffffffffffffffffffffff1673ffffffffffffffffffffffffffffffffffffffff16815260200190815260200160002060009054906101000a900473ffffffffffffffffffffffffffffffffffffffff1690509392505050565b60007c010000000000000000000000000000000000000000000000000000000002817bffffffffffffffffffffffffffffffffffffffffffffffffffffffff191614156102e057600080fd5b80306102ea6106a5565b80837bffffffffffffffffffffffffffffffffffffffffffffffffffffffff19167bffffffffffffffffffffffffffffffffffffffffffffffffffffffff191681526020018273ffffffffffffffffffffffffffffffffffffffff1673ffffffffffffffffffffffffffffffffffffffff16815260200192505050604051809103906000f080151561037b57600080fd5b826000016000837bffffffffffffffffffffffffffffffffffffffffffffffffffffffff19167bffffffffffffffffffffffffffffffffffffffffffffffffffffffff1916815260200190815260200160002060003073ffffffffffffffffffffffffffffffffffffffff1673ffffffffffffffffffffffffffffffffffffffff16815260200190815260200160002060006101000a81548173ffffffffffffffffffffffffffffffffffffffff021916908373ffffffffffffffffffffffffffffffffffffffff1602179055505050565b60007c010000000000000000000000000000000000000000000000000000000002847bffffffffffffffffffffffffffffffffffffffffffffffffffffffff1916141561049957600080fd5b83308484846104a66106b5565b80867bffffffffffffffffffffffffffffffffffffffffffffffffffffffff19167bffffffffffffffffffffffffffffffffffffffffffffffffffffffff191681526020018573ffffffffffffffffffffffffffffffffffffffff1673ffffffffffffffffffffffffffffffffffffffff1681526020018473ffffffffffffffffffffffffffffffffffffffff1673ffffffffffffffffffffffffffffffffffffffff1681526020018373ffffffffffffffffffffffffffffffffffffffff1673ffffffffffffffffffffffffffffffffffffffff1681526020018273ffffffffffffffffffffffffffffffffffffffff1673ffffffffffffffffffffffffffffffffffffffff16815260200195505050505050604051809103906000f08015156105d057600080fd5b856000016000867bffffffffffffffffffffffffffffffffffffffffffffffffffffffff19167bffffffffffffffffffffffffffffffffffffffffffffffffffffffff1916815260200190815260200160002060008573ffffffffffffffffffffffffffffffffffffffff1673ffffffffffffffffffffffffffffffffffffffff16815260200190815260200160002060006101000a81548173ffffffffffffffffffffffffffffffffffffffff021916908373ffffffffffffffffffffffffffffffffffffffff1602179055505050505050565b6040516102be806106c683390190565b604051610ef8806109848339019056006060604052341561000f57600080fd5b6040516040806102be83398101604052808051906020019091908051906020019091905050806000806101000a81548173ffffffffffffffffffffffffffffffffffffffff021916908373ffffffffffffffffffffffffffffffffffffffff16021790555081600060146101000a81548163ffffffff02191690837c01000000000000000000000000000000000000000000000000000000009004021790555050506101fe806100c06000396000f300606060405260043610610041576000357c0100000000000000000000000000000000000000000000000000000000900463ffffffff168063f437bc5914610158575b341561004c57600080fd5b6000809054906101000a900473ffffffffffffffffffffffffffffffffffffffff1673ffffffffffffffffffffffffffffffffffffffff16600060149054906101000a90047c0100000000000000000000000000000000000000000000000000000000027c01000000000000000000000000000000000000000000000000000000009004336040518263ffffffff167c0100000000000000000000000000000000000000000000000000000000028152600401808273ffffffffffffffffffffffffffffffffffffffff1673ffffffffffffffffffffffffffffffffffffffff16815260200191505060006040518083038160008761646e5a03f192505050151561015657600080fd5b005b341561016357600080fd5b61016b6101ad565b604051808273ffffffffffffffffffffffffffffffffffffffff1673ffffffffffffffffffffffffffffffffffffffff16815260200191505060405180910390f35b6000809054906101000a900473ffffffffffffffffffffffffffffffffffffffff16815600a165627a7a72305820807a0131ff184e49ba47e087040a585c53f716474625d6a6f29805523466097800296060604052341561000f57600080fd5b60405160a080610ef8833981016040528080519060200190919080519060200190919080519060200190919080519060200190919080519060200190919050508160008173ffffffffffffffffffffffffffffffffffffffff1614806100a057503073ffffffffffffffffffffffffffffffffffffffff168173ffffffffffffffffffffffffffffffffffffffff16145b156100aa57600080fd5b84600260006101000a81548173ffffffffffffffffffffffffffffffffffffffff021916908373ffffffffffffffffffffffffffffffffffffffff160217905550836000806101000a81548173ffffffffffffffffffffffffffffffffffffffff021916908373ffffffffffffffffffffffffffffffffffffffff16021790555082600160006101000a81548173ffffffffffffffffffffffffffffffffffffffff021916908373ffffffffffffffffffffffffffffffffffffffff16021790555085600360146101000a81548163ffffffff02191690837c01000000000000000000000000000000000000000000000000000000009004021790555081600360006101000a81548173ffffffffffffffffffffffffffffffffffffffff021916908373ffffffffffffffffffffffffffffffffffffffff160217905550505050505050610cfb806101fd6000396000f300606060405260043610610083576000357c0100000000000000000000000000000000000000000000000000000000900463ffffffff16806309f29d1b1461029f578063600d7003146102c257806366d003ac146102d75780638da5cb5b1461032c57806392c2bcb414610381578063b8e6e112146103ba578063f437bc59146103f3575b341561008e57600080fd5b6000809054906101000a900473ffffffffffffffffffffffffffffffffffffffff1673ffffffffffffffffffffffffffffffffffffffff163373ffffffffffffffffffffffffffffffffffffffff16141580156101bf5750600260009054906101000a900473ffffffffffffffffffffffffffffffffffffffff1673ffffffffffffffffffffffffffffffffffffffff16634d547ada6000604051602001526040518163ffffffff167c0100000000000000000000000000000000000000000000000000000000028152600401602060405180830381600087803b151561017457600080fd5b6102c65a03f1151561018557600080fd5b5050506040518051905073ffffffffffffffffffffffffffffffffffffffff163373ffffffffffffffffffffffffffffffffffffffff1614155b156101c957600080fd5b600260009054906101000a900473ffffffffffffffffffffffffffffffffffffffff1673ffffffffffffffffffffffffffffffffffffffff16600360149054906101000a90047c0100000000000000000000000000000000000000000000000000000000027c010000000000000000000000000000000000000000000000000000000090046040518163ffffffff167c010000000000000000000000000000000000000000000000000000000002815260040160006040518083038160008761646e5a03f192505050151561029d57600080fd5b005b34156102aa57600080fd5b6102c06004808035906020019091905050610448565b005b34156102cd57600080fd5b6102d56105bc565b005b34156102e257600080fd5b6102ea610814565b604051808273ffffffffffffffffffffffffffffffffffffffff1673ffffffffffffffffffffffffffffffffffffffff16815260200191505060405180910390f35b341561033757600080fd5b61033f61083a565b604051808273ffffffffffffffffffffffffffffffffffffffff1673ffffffffffffffffffffffffffffffffffffffff16815260200191505060405180910390f35b341561038c57600080fd5b6103b8600480803573ffffffffffffffffffffffffffffffffffffffff1690602001909190505061085f565b005b34156103c557600080fd5b6103f1600480803573ffffffffffffffffffffffffffffffffffffffff1690602001909190505061095a565b005b34156103fe57600080fd5b610406610ca9565b604051808273ffffffffffffffffffffffffffffffffffffffff1673ffffffffffffffffffffffffffffffffffffffff16815260200191505060405180910390f35b600260009054906101000a900473ffffffffffffffffffffffffffffffffffffffff1673ffffffffffffffffffffffffffffffffffffffff163373ffffffffffffffffffffffffffffffffffffffff161415156104a457600080fd5b600360009054906101000a900473ffffffffffffffffffffffffffffffffffffffff1673ffffffffffffffffffffffffffffffffffffffff1663a9059cbb600160009054906101000a900473ffffffffffffffffffffffffffffffffffffffff16836000604051602001526040518363ffffffff167c0100000000000000000000000000000000000000000000000000000000028152600401808373ffffffffffffffffffffffffffffffffffffffff1673ffffffffffffffffffffffffffffffffffffffff16815260200182815260200192505050602060405180830381600087803b151561059357600080fd5b6102c65a03f115156105a457600080fd5b5050506040518051905015156105b957600080fd5b50565b6000600260009054906101000a900473ffffffffffffffffffffffffffffffffffffffff1673ffffffffffffffffffffffffffffffffffffffff163373ffffffffffffffffffffffffffffffffffffffff1614151561061a57600080fd5b600360009054906101000a900473ffffffffffffffffffffffffffffffffffffffff1673ffffffffffffffffffffffffffffffffffffffff166370a08231306000604051602001526040518263ffffffff167c0100000000000000000000000000000000000000000000000000000000028152600401808273ffffffffffffffffffffffffffffffffffffffff1673ffffffffffffffffffffffffffffffffffffffff168152602001915050602060405180830381600087803b15156106df57600080fd5b6102c65a03f115156106f057600080fd5b505050604051805190509050600360009054906101000a900473ffffffffffffffffffffffffffffffffffffffff1673ffffffffffffffffffffffffffffffffffffffff1663a9059cbb600160009054906101000a900473ffffffffffffffffffffffffffffffffffffffff16836000604051602001526040518363ffffffff167c0100000000000000000000000000000000000000000000000000000000028152600401808373ffffffffffffffffffffffffffffffffffffffff1673ffffffffffffffffffffffffffffffffffffffff16815260200182815260200192505050602060405180830381600087803b15156107eb57600080fd5b6102c65a03f115156107fc57600080fd5b50505060405180519050151561081157600080fd5b50565b600160009054906101000a900473ffffffffffffffffffffffffffffffffffffffff1681565b6000809054906101000a900473ffffffffffffffffffffffffffffffffffffffff1681565b6000809054906101000a900473ffffffffffffffffffffffffffffffffffffffff1673ffffffffffffffffffffffffffffffffffffffff163373ffffffffffffffffffffffffffffffffffffffff161415156108ba57600080fd5b8060008173ffffffffffffffffffffffffffffffffffffffff16148061090b57503073ffffffffffffffffffffffffffffffffffffffff168173ffffffffffffffffffffffffffffffffffffffff16145b1561091557600080fd5b81600160006101000a81548173ffffffffffffffffffffffffffffffffffffffff021916908373ffffffffffffffffffffffffffffffffffffffff1602179055505050565b60008060009054906101000a900473ffffffffffffffffffffffffffffffffffffffff1673ffffffffffffffffffffffffffffffffffffffff163373ffffffffffffffffffffffffffffffffffffffff1614158015610a8d5750600260009054906101000a900473ffffffffffffffffffffffffffffffffffffffff1673ffffffffffffffffffffffffffffffffffffffff16634d547ada6000604051602001526040518163ffffffff167c0100000000000000000000000000000000000000000000000000000000028152600401602060405180830381600087803b1515610a4257600080fd5b6102c65a03f11515610a5357600080fd5b5050506040518051905073ffffffffffffffffffffffffffffffffffffffff163373ffffffffffffffffffffffffffffffffffffffff1614155b15610a9757600080fd5b600360009054906101000a900473ffffffffffffffffffffffffffffffffffffffff1673ffffffffffffffffffffffffffffffffffffffff168273ffffffffffffffffffffffffffffffffffffffff161415610af257600080fd5b8173ffffffffffffffffffffffffffffffffffffffff166370a08231306000604051602001526040518263ffffffff167c0100000000000000000000000000000000000000000000000000000000028152600401808273ffffffffffffffffffffffffffffffffffffffff1673ffffffffffffffffffffffffffffffffffffffff168152602001915050602060405180830381600087803b1515610b9557600080fd5b6102c65a03f11515610ba657600080fd5b5050506040518051905090508173ffffffffffffffffffffffffffffffffffffffff1663a9059cbb600160009054906101000a900473ffffffffffffffffffffffffffffffffffffffff16836000604051602001526040518363ffffffff167c0100000000000000000000000000000000000000000000000000000000028152600401808373ffffffffffffffffffffffffffffffffffffffff1673ffffffffffffffffffffffffffffffffffffffff16815260200182815260200192505050602060405180830381600087803b1515610c7f57600080fd5b6102c65a03f11515610c9057600080fd5b505050604051805190501515610ca557600080fd5b5050565b600260009054906101000a900473ffffffffffffffffffffffffffffffffffffffff16815600a165627a7a7230582086249772476865ebf52b8b2c42173d381fb728751e85f56a074f250fd246f45e0029a165627a7a72305820334c88dec057548b3032c9765b7ed452259b114ba7913601c87b8386b13ecdb00029",
  "source": "pragma solidity ^0.4.18;\n\nimport './TrustedProxy.sol';\nimport './PublicProxy.sol';\n\n/* The Relay library serves as a base library for any contract that wishes to expose methods through proxy addresses. */\nlibrary Relay {\n\n    struct Data {\n        // a mapping of methodId => proxy address\n        mapping (bytes4 => mapping(address => address)) relays;\n    }\n\n    /** Adds a public relay for the given method. */\n    function addPublicRelay(Data storage self, bytes4 methodId) public {\n        if (methodId == 0x0) revert();\n        self.relays[methodId][this] = address(new PublicProxy(methodId, this));\n    }\n\n    /** Adds a relay for the given method. */\n    function addRelay(Data storage self, bytes4 methodId, address owner, address recipient, address token) public {\n        if (methodId == 0x0) revert();\n        self.relays[methodId][owner] = address(new TrustedProxy(methodId, this, owner, recipient, token));\n    }\n\n    /** Retrieves the dynamic contract address that can be sent a transaction to trigger the given method. */\n    function getRelay(Data storage self, bytes4 methodId, address owner) public view returns (address) {\n        return self.relays[methodId][owner];\n    }\n}\n",
  "sourcePath": "/media/m/MembershipController/contracts/Relay.sol",
  "compiler": {
    "name": "solc",
    "version": "0.4.19+commit.c4cbbb05.Emscripten.clang"
  },
  "schemaVersion": "2.0.0",
  "updatedAt": "2018-04-18T02:25:26.452Z"
}