{
  "contractName": "TrustedProxy",
  "abi": [
    {
      "constant": true,
      "inputs": [],
      "name": "recipient",
      "outputs": [
        {
          "name": "",
          "type": "address"
        }
      ],
      "payable": false,
      "stateMutability": "view",
      "type": "function"
    },
    {
      "constant": true,
      "inputs": [],
      "name": "owner",
      "outputs": [
        {
          "name": "",
          "type": "address"
        }
      ],
      "payable": false,
      "stateMutability": "view",
      "type": "function"
    },
    {
      "constant": true,
      "inputs": [],
      "name": "host",
      "outputs": [
        {
          "name": "",
          "type": "address"
        }
      ],
      "payable": false,
      "stateMutability": "view",
      "type": "function"
    },
    {
      "inputs": [
        {
          "name": "_methodId",
          "type": "bytes4"
        },
        {
          "name": "_host",
          "type": "address"
        },
        {
          "name": "_owner",
          "type": "address"
        },
        {
          "name": "_recipient",
          "type": "address"
        },
        {
          "name": "_token",
          "type": "address"
        }
      ],
      "payable": false,
      "stateMutability": "nonpayable",
      "type": "constructor"
    },
    {
      "payable": false,
      "stateMutability": "nonpayable",
      "type": "fallback"
    },
    {
      "constant": false,
      "inputs": [
        {
          "name": "_amount",
          "type": "uint256"
        }
      ],
      "name": "retrieveTokens",
      "outputs": [],
      "payable": false,
      "stateMutability": "nonpayable",
      "type": "function"
    },
    {
      "constant": false,
      "inputs": [],
      "name": "retrieveTokens",
      "outputs": [],
      "payable": false,
      "stateMutability": "nonpayable",
      "type": "function"
    },
    {
      "constant": false,
      "inputs": [
        {
          "name": "_token",
          "type": "address"
        }
      ],
      "name": "retrieveOtherToken",
      "outputs": [],
      "payable": false,
      "stateMutability": "nonpayable",
      "type": "function"
    },
    {
      "constant": false,
      "inputs": [
        {
          "name": "_recipient",
          "type": "address"
        }
      ],
      "name": "changeRecipient",
      "outputs": [],
      "payable": false,
      "stateMutability": "nonpayable",
      "type": "function"
    }
  ],
  "bytecode": "0x6060604052341561000f57600080fd5b60405160a080610ef8833981016040528080519060200190919080519060200190919080519060200190919080519060200190919080519060200190919050508160008173ffffffffffffffffffffffffffffffffffffffff1614806100a057503073ffffffffffffffffffffffffffffffffffffffff168173ffffffffffffffffffffffffffffffffffffffff16145b156100aa57600080fd5b84600260006101000a81548173ffffffffffffffffffffffffffffffffffffffff021916908373ffffffffffffffffffffffffffffffffffffffff160217905550836000806101000a81548173ffffffffffffffffffffffffffffffffffffffff021916908373ffffffffffffffffffffffffffffffffffffffff16021790555082600160006101000a81548173ffffffffffffffffffffffffffffffffffffffff021916908373ffffffffffffffffffffffffffffffffffffffff16021790555085600360146101000a81548163ffffffff02191690837c01000000000000000000000000000000000000000000000000000000009004021790555081600360006101000a81548173ffffffffffffffffffffffffffffffffffffffff021916908373ffffffffffffffffffffffffffffffffffffffff160217905550505050505050610cfb806101fd6000396000f300606060405260043610610083576000357c0100000000000000000000000000000000000000000000000000000000900463ffffffff16806309f29d1b1461029f578063600d7003146102c257806366d003ac146102d75780638da5cb5b1461032c57806392c2bcb414610381578063b8e6e112146103ba578063f437bc59146103f3575b341561008e57600080fd5b6000809054906101000a900473ffffffffffffffffffffffffffffffffffffffff1673ffffffffffffffffffffffffffffffffffffffff163373ffffffffffffffffffffffffffffffffffffffff16141580156101bf5750600260009054906101000a900473ffffffffffffffffffffffffffffffffffffffff1673ffffffffffffffffffffffffffffffffffffffff16634d547ada6000604051602001526040518163ffffffff167c0100000000000000000000000000000000000000000000000000000000028152600401602060405180830381600087803b151561017457600080fd5b6102c65a03f1151561018557600080fd5b5050506040518051905073ffffffffffffffffffffffffffffffffffffffff163373ffffffffffffffffffffffffffffffffffffffff1614155b156101c957600080fd5b600260009054906101000a900473ffffffffffffffffffffffffffffffffffffffff1673ffffffffffffffffffffffffffffffffffffffff16600360149054906101000a90047c0100000000000000000000000000000000000000000000000000000000027c010000000000000000000000000000000000000000000000000000000090046040518163ffffffff167c010000000000000000000000000000000000000000000000000000000002815260040160006040518083038160008761646e5a03f192505050151561029d57600080fd5b005b34156102aa57600080fd5b6102c06004808035906020019091905050610448565b005b34156102cd57600080fd5b6102d56105bc565b005b34156102e257600080fd5b6102ea610814565b604051808273ffffffffffffffffffffffffffffffffffffffff1673ffffffffffffffffffffffffffffffffffffffff16815260200191505060405180910390f35b341561033757600080fd5b61033f61083a565b604051808273ffffffffffffffffffffffffffffffffffffffff1673ffffffffffffffffffffffffffffffffffffffff16815260200191505060405180910390f35b341561038c57600080fd5b6103b8600480803573ffffffffffffffffffffffffffffffffffffffff1690602001909190505061085f565b005b34156103c557600080fd5b6103f1600480803573ffffffffffffffffffffffffffffffffffffffff1690602001909190505061095a565b005b34156103fe57600080fd5b610406610ca9565b604051808273ffffffffffffffffffffffffffffffffffffffff1673ffffffffffffffffffffffffffffffffffffffff16815260200191505060405180910390f35b600260009054906101000a900473ffffffffffffffffffffffffffffffffffffffff1673ffffffffffffffffffffffffffffffffffffffff163373ffffffffffffffffffffffffffffffffffffffff161415156104a457600080fd5b600360009054906101000a900473ffffffffffffffffffffffffffffffffffffffff1673ffffffffffffffffffffffffffffffffffffffff1663a9059cbb600160009054906101000a900473ffffffffffffffffffffffffffffffffffffffff16836000604051602001526040518363ffffffff167c0100000000000000000000000000000000000000000000000000000000028152600401808373ffffffffffffffffffffffffffffffffffffffff1673ffffffffffffffffffffffffffffffffffffffff16815260200182815260200192505050602060405180830381600087803b151561059357600080fd5b6102c65a03f115156105a457600080fd5b5050506040518051905015156105b957600080fd5b50565b6000600260009054906101000a900473ffffffffffffffffffffffffffffffffffffffff1673ffffffffffffffffffffffffffffffffffffffff163373ffffffffffffffffffffffffffffffffffffffff1614151561061a57600080fd5b600360009054906101000a900473ffffffffffffffffffffffffffffffffffffffff1673ffffffffffffffffffffffffffffffffffffffff166370a08231306000604051602001526040518263ffffffff167c0100000000000000000000000000000000000000000000000000000000028152600401808273ffffffffffffffffffffffffffffffffffffffff1673ffffffffffffffffffffffffffffffffffffffff168152602001915050602060405180830381600087803b15156106df57600080fd5b6102c65a03f115156106f057600080fd5b505050604051805190509050600360009054906101000a900473ffffffffffffffffffffffffffffffffffffffff1673ffffffffffffffffffffffffffffffffffffffff1663a9059cbb600160009054906101000a900473ffffffffffffffffffffffffffffffffffffffff16836000604051602001526040518363ffffffff167c0100000000000000000000000000000000000000000000000000000000028152600401808373ffffffffffffffffffffffffffffffffffffffff1673ffffffffffffffffffffffffffffffffffffffff16815260200182815260200192505050602060405180830381600087803b15156107eb57600080fd5b6102c65a03f115156107fc57600080fd5b50505060405180519050151561081157600080fd5b50565b600160009054906101000a900473ffffffffffffffffffffffffffffffffffffffff1681565b6000809054906101000a900473ffffffffffffffffffffffffffffffffffffffff1681565b6000809054906101000a900473ffffffffffffffffffffffffffffffffffffffff1673ffffffffffffffffffffffffffffffffffffffff163373ffffffffffffffffffffffffffffffffffffffff161415156108ba57600080fd5b8060008173ffffffffffffffffffffffffffffffffffffffff16148061090b57503073ffffffffffffffffffffffffffffffffffffffff168173ffffffffffffffffffffffffffffffffffffffff16145b1561091557600080fd5b81600160006101000a81548173ffffffffffffffffffffffffffffffffffffffff021916908373ffffffffffffffffffffffffffffffffffffffff1602179055505050565b60008060009054906101000a900473ffffffffffffffffffffffffffffffffffffffff1673ffffffffffffffffffffffffffffffffffffffff163373ffffffffffffffffffffffffffffffffffffffff1614158015610a8d5750600260009054906101000a900473ffffffffffffffffffffffffffffffffffffffff1673ffffffffffffffffffffffffffffffffffffffff16634d547ada6000604051602001526040518163ffffffff167c0100000000000000000000000000000000000000000000000000000000028152600401602060405180830381600087803b1515610a4257600080fd5b6102c65a03f11515610a5357600080fd5b5050506040518051905073ffffffffffffffffffffffffffffffffffffffff163373ffffffffffffffffffffffffffffffffffffffff1614155b15610a9757600080fd5b600360009054906101000a900473ffffffffffffffffffffffffffffffffffffffff1673ffffffffffffffffffffffffffffffffffffffff168273ffffffffffffffffffffffffffffffffffffffff161415610af257600080fd5b8173ffffffffffffffffffffffffffffffffffffffff166370a08231306000604051602001526040518263ffffffff167c0100000000000000000000000000000000000000000000000000000000028152600401808273ffffffffffffffffffffffffffffffffffffffff1673ffffffffffffffffffffffffffffffffffffffff168152602001915050602060405180830381600087803b1515610b9557600080fd5b6102c65a03f11515610ba657600080fd5b5050506040518051905090508173ffffffffffffffffffffffffffffffffffffffff1663a9059cbb600160009054906101000a900473ffffffffffffffffffffffffffffffffffffffff16836000604051602001526040518363ffffffff167c0100000000000000000000000000000000000000000000000000000000028152600401808373ffffffffffffffffffffffffffffffffffffffff1673ffffffffffffffffffffffffffffffffffffffff16815260200182815260200192505050602060405180830381600087803b1515610c7f57600080fd5b6102c65a03f11515610c9057600080fd5b505050604051805190501515610ca557600080fd5b5050565b600260009054906101000a900473ffffffffffffffffffffffffffffffffffffffff16815600a165627a7a7230582086249772476865ebf52b8b2c42173d381fb728751e85f56a074f250fd246f45e0029",
  "source": "pragma solidity ^0.4.18;\n\nimport './Token.sol';\nimport './MembershipController.sol';\n\n/**\n *  The TrustedProxy contract represents a single method on a host contract. This one is specifically designed for use with the MembershipController.\n *\n *  It stores the address of the host contract and the method id of the method so that it can invoke the method when a user sends funds to this contract's address.\n *\n *  It stores a recipient address that will receive any retrieved tokens.\n *\n *  Note: This version is a Trusted variant of the standard Proxy contract that allows an authorized address to call functions in addition to the owner.\n */\ncontract TrustedProxy {\n\n    /* The address of the relay owner (who has permission to trigger it). */\n    address public owner;\n\n    /* The address that retrieved tokens will be transferred to. */\n    address public recipient;\n\n    /* The address of the host contract. */\n    address public host;\n\n    /* The address of the token contract. */\n    Token token;\n\n    /**\n     *  The methodId of the host contract method.\n     *\n     *  This is equivalent to bytes4(keccak256(methodName)),\n     *  where the method name includes the parentheses as if you were calling the function,\n     *  and the parameter types, in order, separated by commas with no whitespace included.\n     *      Example: methodId = bytes4(keccak256(\"transfer(uint256,address)\"))\n     */\n    bytes4 methodId;\n\n    /* Modifiers */\n    modifier onlyHost { if (msg.sender != host) revert(); _; }\n    modifier onlyOwner { if (msg.sender != owner) revert(); _; }\n    modifier onlyAuthorizedAddress { if (msg.sender != owner && msg.sender != MembershipController(host).worker()) revert(); _; }\n    modifier validRecipient(address _recipient) { if (_recipient == 0x0 || _recipient == address(this)) revert(); _; }\n\n    function TrustedProxy(bytes4 _methodId, address _host, address _owner, address _recipient, address _token) public validRecipient(_recipient) {\n        host = _host;\n        owner = _owner;\n        recipient = _recipient;\n        methodId = _methodId;\n        token = Token(_token);\n    }\n\n    /**\n     *  Called by MembershipController when retrieving all tokens post-cancellation and post-expiration and when overriding an active membership.\n     */\n    function retrieveTokens() public onlyHost {\n        uint balance = token.balanceOf(this);\n        if (!token.transfer(recipient, balance)) revert();\n    }\n\n    /**\n     *  Called by MembershipController when retrieving a specific amount of tokens.\n     */\n    function retrieveTokens(uint _amount) public onlyHost {\n        if (!token.transfer(recipient, _amount)) revert();\n    }\n\n    /**\n     *  Allows an authorized address to retrieve non-membership tokens mistakenly sent to this contract.\n     */\n    function retrieveOtherToken(address _token) public onlyAuthorizedAddress {\n        // do not allow retrieval of membership tokens through this function\n        if (_token == address(token)) revert();\n\n        uint balance = Token(_token).balanceOf(this);\n        if (!Token(_token).transfer(recipient, balance)) revert();\n    }\n\n    /**\n     *  Allows the owner to change the address that will receive any retrieved tokens.\n     */\n    function changeRecipient(address _recipient) public onlyOwner validRecipient(_recipient) {\n        recipient = _recipient;\n    }\n\n    function() public onlyAuthorizedAddress {\n        // if host call throws, throw this transaction as well\n        if(!host.call(methodId)) revert();\n    }\n}",
  "sourcePath": "/media/m/MembershipController/contracts/TrustedProxy.sol",
  "compiler": {
    "name": "solc",
    "version": "0.4.19+commit.c4cbbb05.Emscripten.clang"
  },
  "schemaVersion": "2.0.0",
  "updatedAt": "2018-04-18T01:49:25.639Z"
}